:1000000003308A00BD2B0000FF00030E8301A10016
:100010000A08A0008A010408A2007708A300780853
:10002000A4007908A5007A08A600831383128C30F7
:100030008400801E1D288C1A32288B1E21280B1943
:100040003528220884002308F7002408F800250832
:10005000F9002608FA0020088A00210E8300FF0E0E
:100060007F0E09008A110A12052A8A110A12752ABE
:10007000831603178C170C1400000000031868285F
:1000800083120C087F390313B90003170D080313FB
:10009000BA0003170F080313BB0039080C1E4E28C3
:1000A00099003A0803178D0003133B0803178F00CC
:1000B00083168C170C140000000083120313B80B76
:1000C0006228652883160317682888288316031773
:1000D00083120C0D0E0D7F390313B90003170D08A1
:1000E0000313BA0003170F080313BB0039080C1ED3
:1000F000772899003A0803178D0003133B0803176C
:100100008F008D0A03198F0A03100313B80B3828C8
:100110000800393084008313000803199D2801303A
:10012000F800F701F70B9228F80B91284A30F700F6
:10013000F70B98289B28800B8F2808003608313C45
:100140000319A428370BC328123003178D0002307F
:100150008F0003100F300313B800382036080C1E30
:10016000AF28990020300C1EB32899000D300C1ECA
:10017000B728990020300C1EBB289900061CC22805
:100180000610C32806143608323C0319CB2837085A
:10019000023C031DEA281D3003178D0002308F003A
:1001A00003100F300313B800382036080C1ED62871
:1001B000990020300C1EDA2899000D300C1EDE2824
:1001C000990020300C1EE22899008618E928861430
:1001D000EA2886103608333C0319F2283708033C16
:1001E000031D1129283003178D0002308F000310E2
:1001F00010300313B800382036080C1EFD28990073
:1002000020300C1E012999000D300C1E0529990083
:1002100020300C1E092999000619102906151129EC
:1002200006113608343C031919293708043C031D0C
:100230003629333003178D0002308F000310103041
:100240000313B800382036080C1E242999002030EA
:100250000C1E282999000D300C1E2C2999002030E5
:100260000C1E302999000610861006113608353C00
:1002700003193E293708053C031D5B293E3003174F
:100280008D0002308F00031010300313B8003820A7
:1002900036080C1E4929990020300C1E4D29990062
:1002A0000D300C1E5129990020300C1E5529990043
:1002B0000614861406153608363C031963293708D8
:1002C000063C031D7E29493003178D0002308F0044
:1002D000031010300313B800382036080C1E6E29A6
:1002E000990020300C1E722999000D300C1E7629C1
:1002F000990020300C1E7A29990086153608373C63
:10030000031986293708073C031DA1295430031718
:100310008D0002308F00031010300313B800382016
:1003200036080C1E9129990020300C1E9529990041
:100330000D300C1E9929990020300C1E9D29990022
:1003400086113608383C0319A9293708083C031DD3
:10035000CC295F3003178D0002308F00031010305E
:100360000313B800382036080C1EB4299900203039
:100370000C1EB82999000D300C1EBC2999002030A4
:100380000C1EC029990006160230B800FA30B900D8
:100390008920B80BC62906123608393C0319D4291E
:1003A0003708093C031DF7296A3003178D00023016
:1003B0008F00031010300313B800382036080C1ECD
:1003C000DF29990020300C1EE32999000D300C1E06
:1003D000E729990020300C1EEB299900861602307F
:1003E000B800FA30B9008920B80BF1298612023022
:1003F000B800FA30B9008920B80BF929B7080319F9
:10040000042A0508B700FE2908008C1E052A1A08D0
:10041000AA002A08B600B7019E20AA018C128A11F0
:100420000A1221285039E539E937EE30733A651060
:100430006536A01263100D1000005039E539E93718
:10044000EE30733A65106536A01263100D1000018E
:100450005039E539E937EE30733A651065362010CA
:10046000A531A00620005039E539E937EE30733A5E
:10047000651065362010A531A00620005039E539F9
:10048000E937EE30733A651065362010A531A006C5
:1004900020005039E539E937EE30733A651065369A
:1004A0002010A531A00620005039E539E937EE309B
:1004B000733A651065362010A531A006200050392A
:1004C000E539E937EE30733A651065362010A5310D
:1004D000A00620005039E539E937EE30733A65104F
:1004E00065362010A531A0062000013088060030B6
:1004F000F8001F08C73978049F000630F700F70B93
:100500007F2A00001F151F19832A83161E088312D5
:10051000AC001E08AD002D08B9002C08B8008E30C4
:10052000F7003908F8003808F900FA01F808031D47
:10053000A32A7908F800F9010830F702F808031D2A
:10054000A32AF701AB2A0310F81BAA2AF90DF80D0C
:10055000F703A32AF8137A08BB007908BA007808D1
:10056000B9007708B8004B30BF001F30BE007A30AA
:10057000BD007D30BC00380803192B2BC0003C089F
:1005800003192B2BC0070318CC2A7F30C002031C91
:100590002B2B03192B2BD02A8130C00703182B2BB0
:1005A0004008F700F801F901FA013908C400C4173E
:1005B0003A08C3003B08C2001830C000C101421C09
:1005C000F92A3F08FA07031CEB2AF90A031DEB2A54
:1005D000F80A0319C1173E08F907031CF22AF80AA2
:1005E0000319C1173D08BA00BA173A08F8070318EB
:1005F000C117C10DF80CF90CFA0CC40CC30CC20CD9
:100600000310C00BDE2A0130F70703182B2BF81B51
:10061000102BC40DFA0DF90DF80DF70303192B2B50
:10062000C41F212BFA0A031D212BF90A031D212BBC
:10063000F80A031D212BF80CF90CFA0CF70A031920
:100640002B2B3908C1003D08C106C11F292BF81703
:100650002F2BF8132F2BF701F801F901FA017A0873
:10066000BB007908BA007808B9007708B8008E3066
:10067000F7003808F7023908F9003A08F800F917C6
:10068000F70803194E2B0310F908031D4A2BF8082D
:1006900003194E2BF90CF80CF70B432BB91F552BF4
:1006A000F809F909F80A0319F90A7808AE002E08C2
:1006B000B8000A30B9003908F80138020318632B72
:1006C0003808F7006F2BF7010830BA00B80DF70DA6
:1006D000390877020318F700F80DBA0B662B780873
:1006E0000F39B6003608B8000A30B900F701F80132
:1006F000380803103918F707F70CF80CB918F70782
:10070000F70CF80C3919F707F70CF80CB919F707BB
:10071000F70CF80C391AF707F70CF80CB91AF707A9
:10072000F70CF80C391BF707F70CF80CB91BF70797
:10073000F70CF80C78082E020F39B700071EAC2B07
:1007400007120630F700F70BA32B0000F0308705E7
:10075000360887048716B72B87120630F700F70B89
:10076000AF2B0000F0308705370887040716D93013
:1007700081000B118A110A122128840183131F3072
:100780008305193083169900A230980090308312A7
:100790009800AA01AB01AD01AC01AE0183161F1494
:1007A0009F141F159F1107309C008312A801A901F7
:1007B00083168C160108C0390738810083128B1606
:1007C000C0308B0483161F109F141F159F151F1315
:1007D00083121F179F1783169F1783121F1432301F
:1007E0008100FF308316850000308600803087004E
:1007F00000308800091489140915831286018801C4
:10080000870107168316091483120918222CA701E1
:100810008B1BA7178B133C30B9008920A71B8B17A4
:100820008316091483120918222C061C1B2C861C03
:100830001B2C06191F2C061486140615222C0610D4
:100840008610061183168914831289183A2CA70181
:100850008B1BA7178B133230B9008920A71B8B176E
:1008600083168914831289183A2C8619392C861517
:100870003A2C8611831609148312091C432C831603
:1008800089148312891C3A2C0508AF000310AF0CA1
:10089000AF080319652CA7018B1BA7178B133230E8
:1008A000B9008920A71B8B170508AF000310AF0CF8
:1008B000AF080319652CA7018B1BA7178B13B60173
:0E08C0002F08B7009E20A71B8B17022C630089
:02400E00713F00
:00000001FF
;PIC16F877A
;CRC=1389  CREATED="19-may-16 11:15"
