:1000000012308A00A42A00000A108A100A110B3E3E
:1000100003188A0A820000340034003400340034AB
:10002000003400345F3400340034003403340034CE
:100030000334003414343E3414343E341434243441
:100040002A347F342A341234433433340834663447
:100050006134363449345534223450340034053454
:1000600003340034003400341C342234413400346E
:100070000034413422341C340034143408343E3407
:1000800008341434083408343E3408340834003456
:100090005034303400340034083408340834083420
:1000A00008340034603460340034003420341034B8
:1000B0000834043402343E345134493445343E3437
:1000C000043402347F340034003442346134513417
:1000D00049344634223441344934493436341834AE
:1000E000143412347F3410342734453445344534C5
:1000F00039343E34493449344934323401340134DA
:100100007134093407343634493449344934363487
:1001100026344934493449343E3400343634363494
:10012000003400340034563436340034003408349B
:100130001434223441340034143414341434143458
:100140001434003441342234143408340234013479
:100150005134093406343E344134593455345E3414
:100160007E340934093409347E347F3449344934C7
:10017000493436343E3441344134413422347F34BE
:100180004134413441343E347F3449344934493474
:1001900041347F3409340934093401343E34413464
:1001A000413449343A347F340834083408347F34D5
:1001B000003441347F3441340034303440344034EE
:1001C00040343F347F3408341434223441347F3493
:1001D00040344034403440347F3402340C340234F0
:1001E0007F347F340234043408347F343E34413465
:1001F000413441343E347F340934093409340634FF
:100200001E342134213421345E347F3409340934DE
:10021000093476340A148A100A11820726344934C4
:10022000493449343234013401347F3401340134E7
:100230003F344034403440343F341F342034403461
:1002400020341F347F342034103420347F34413440
:1002500022341C34223441340734083470340834D6
:1002600007346134513449344534433400347F34E5
:10027000413400340034023404340834103420345F
:100280000034003441347F34003404340234013407
:100290000234043440344034403440344034003478
:1002A000013402340434003420345434543454348B
:1002B00078347F3444344434443438343834443427
:1002C00044344434443438344434443444347F343F
:1002D00038345434543454341834043404347E34AC
:1002E0000534053408345434543454343C347F34A5
:1002F0000834043404347834003444347D344034D5
:1003000000342034403444343D3400347F341034DD
:10031000283444340034003441347F3440340034D1
:100320007C3404347834043478347C340834043431
:1003300004347834383444344434443438347C34E9
:100340001434143414340834083414341434143485
:100350007C3400347C340834043404344834543459
:10036000543454342034043404343F344434443456
:100370003C344034403420347C341C342034403409
:1003800020341C343C344034303440343C34443425
:1003900028341034283444340C345034503450341D
:1003A0003C344434643454344C34443400340834DD
:1003B000363441344134003400347F340034003466
:1003C00041344134363408340034023401340234C8
:1003D00004340234FB0001307A078A007B08F33EC4
:1003E00003188A0A8200FF34FF34FF34FF340034DC
:1003F000003400340034003400340034003400345D
:10040000003400340034003400340034003400344C
:10041000003400340034003400340034003400343C
:10042000003400340034003400340034003400342C
:10043000003400340034003400340034003400341C
:10044000003400340034003400340034003400340C
:1004500000340034003400340034003400340034FC
:1004600000340034003400340034003400340034EC
:1004700000340034003400340034003400340034DC
:100480000034003400340034F034903410346034DC
:10049000803400340034F0341034F034003400344C
:1004A000B834A834B8340034003400340034803414
:1004B000803480348034003400340034003400341C
:1004C000803480348034803480340034003400340C
:1004D000C0342034D034503450345034D034A0346C
:1004E000C03400348034003400340034003400342C
:1004F000003400340034003400340034083408344C
:100500000834083408340834FF348034FF340634A7
:100510000934363448349F348034FF340034003496
:10052000FF348034FF34003400343E3441349C3492
:10053000A234A234B6345534363400343E34413417
:100540009C34A234A234A2349C3441343E3400346E
:1005500031345234B534A634AA34AA34AA34D4344B
:10056000443438340334003400340034003400346C
:1005700000340034003400340034003408340834CB
:10058000083408340834083408340834083408348B
:10059000083408340834083408340834083408347B
:1005A000083408340834083408340834083408346B
:1005B000083408340834083408340834083408345B
:1005C000083408340834083408340834083408344B
:1005D000083408340C341E341E341C3420342034C7
:1005E000403440348034003400340034003400346B
:1005F000003400340034003400340034003400345B
:10060000003400340034003400340034003400344A
:10061000003400340034003400340034003400343A
:10062000003400340034003400340034003400342A
:10063000003400340034003400340034003400341A
:10064000003400340034003400340034003400340A
:1006500000340034003400340034003400340034FA
:1006600000340034003400340034003400340034EA
:1006700000340034003400340034003400340034DA
:10068000FF340034FF3401340134FF340034FE34CD
:1006900001340134FF340034003401340134FF34B8
:1006A00000340034FF3401340134FE340034FF34AC
:1006B00001340134FE34003400340034003400349A
:1006C000003400340034003400340034003400348A
:1006D0000034FF340134013400340034FF34013479
:1006E0000134FF340034003400340034003400346A
:1006F000003400340034003400340034003400345A
:10070000FF340034FF3400340034FF340034FF344D
:1007100000340034FF340034003400340034FF343B
:1007200000340034FF34003400347F340034FF34AC
:1007300000340034FF34003400340034003400341A
:100740000034003400340034003400340034003409
:100750000034FF340034003400340034FF340034FB
:100760000034FF34003400340034003400340034EA
:1007700000340034003400340034003400340034D9
:1007800001340134013400340034013401340134C3
:1007900000340034013401340134003400340134B5
:1007A00001340134013400340034013401340134A3
:1007B0000034003401340134013401340134013493
:1007C0000134013401340134013401340134013481
:1007D0000134013400340034013401340134003474
:1007E000003401340134FB0003307A078A007B08AF
:1007F000FC3E03188A0A82000034003400340034BE
:100800000034003400340034003400340034003448
:100810000034003400340034003400340034003438
:100820000034003400340034003400340034003428
:100830000034003400340034003400340034003418
:100840000034003400340034003400340034003408
:1008500000340034003400340034003400340034F8
:1008600000340034003400340034003400340034E8
:1008700000340034003400348034803400340034D8
:100880000034803480348034003400348034803448
:10089000803480348034003400348034E0342034B8
:1008A000E0348034003400340034803480348034C8
:1008B0008034803400340034003480348034803418
:1008C0008034803480340034003480348034803488
:1008D00080340034003400340034003400340034F8
:1008E0000034003400340034003400340034003468
:1008F00000340034003400341C3461348E3430341D
:10090000CE3439340734003400346734A934B63473
:10091000AA34BA34AA34CB34703403347E348034ED
:10092000BE34E33400343E346134D434B634B634A7
:10093000B634D43451345E340034FF348234FD3460
:1009400002340234FE348134FD3402340234FE3485
:100950008134FF3408340834083408340834083447
:1009600008340034003400340034003400340034DF
:1009700000340034003400348E340A340B3406342E
:100980000134003400340C341E341E340C3408346A
:100990000834083408340834083408340834083477
:1009A0000834083408340834083408340834083467
:1009B0000834083408340834083408340834083457
:1009C0000834083408340834083408340834083447
:1009D0000834083408340834083408340834083437
:1009E000083400340034003400340034003400345F
:1009F0000034003400340034003401340334023451
:100A0000043404340034003400340034003400343E
:100A10000034003400340034003400340034003436
:100A20000034003400340034003400340034003426
:100A30000034003400340034003400340034003416
:100A40000034003400340034003400340034003406
:100A500000340034003400340034003400340034F6
:100A600000340034003400340034003400340034E6
:100A70000034003400340034FF3401340134FF34D6
:100A800000340034003400340034003400340034C6
:100A900000340034003400340034003400340034B6
:100AA0000034003400340034003400340034FF34A7
:100AB0000134013400340034FF3401340134003493
:100AC0000034FF3401340134FF3400340034003486
:100AD0000034003400340034003400340034003476
:100AE0000034003400340034003400340034003466
:100AF0000034003400340034FF3400340034FF3458
:100B00000034003400340034003400340034003445
:100B10000034003400340034003400340034003435
:100B20000034003400340034003400340034FF3426
:100B30000034003400340034FF3400340034003416
:100B40000034FF3400340034FF3400340034003407
:100B500000340034003400340034003400340034F5
:100B600000340034003400340034003400340034E5
:100B700000340034003400340134003400340134D3
:100B800001340134013401340134013401340134BD
:100B900001340134013401340134013401340134AD
:100BA000013401340134013401340134013401349D
:100BB0000034003401340134013400340034013491
:100BC000013401340034003401340134013401347F
:100BD000013401340134013401340134013401346D
:100BE0000034003400340034003400340034003465
:100BF000003400340034003483165F08303C031D99
:100C0000062E061083120610092E831686108312F4
:100C10008610831606128312061283168801600856
:100C2000831288008316861283128616172E831667
:100C300086128312861283160610831206148316F8
:100C40008610831286140800F701F80183165A08EB
:100C500003105B18F707F70CF80CDB18F707F70C15
:100C6000F80C5B19F707F70CF80CDB19F707F70C12
:100C7000F80C5B1AF707F70CF80CDB1AF707F70C00
:100C8000F80C5B1BF707F70CF80CDB1BF707F70CEE
:100C9000F80C831208008316C1014108073C031CAD
:100CA000A42E06118312061130308316DF00403067
:100CB000E0008312FC2531308316DF004030E00075
:100CC0008312FC2583164108B838C3003030DF009A
:100CD0004308E0008312FC2583164108B838C3009E
:100CE0003130DF004308E0008312FC258316061133
:100CF000831206158316C20142083F3C031CA22E34
:100D0000FF30DA004008DB008312242678088316BF
:100D1000C3003030DF004308E0008312FC25FF30C1
:100D20008316DA004008DB00831224267808831635
:100D3000C3003130DF004308E0008312FC25831636
:100D4000C20A7C2EC10A4D2E8312080022112208ED
:100D50008316870083120715831686128312861264
:100D600083160610831206148316861083128614C7
:100D7000831606118312061130308316DF00C0304F
:100D8000E0008312FC2531308316DF00C030E00024
:100D90008312FC2530308316DF004030E0008312E0
:100DA000FC2531308316DF004030E0008312FC2543
:100DB00030308316DF00B830E0008312FC2531307C
:100DC0008316DF00B830E0008312FC2583163F0B4A
:100DD000F82E3030DF003F30E0008312FC25313048
:100DE0008316DF003F30E0008312FC25052F8316B9
:100DF0003030DF003E30E0008312FC2531308316B6
:100E0000DF003E30E0008312FC258316C001831210
:100E10004B268A110A16A72BC030840083130008C2
:100E20000319202F0130F800F701F70B152FF80BED
:100E3000142F4A30F700F70B1B2F1E2F800B122F99
:100E400008008316061283120612831606118312F7
:100E5000061130308316DF004030E0008312FC259D
:100E6000B83083163F07C0003030DF004008E00094
:100E70008312FC25831606118312061508008316BB
:100E800006128312061283160611831206113130E0
:100E90008316DF004030E0008312FC25B830831653
:100EA0003F07C0003130DF004008E0008312FC251E
:100EB00083160611831206158A110A167F2C30300C
:100EC0008316DD0059083F3C03186A2F4030D902D1
:100ED0003130DD000611831206118316D91359171C
:100EE0005D08DF005908E0008312FC2583165A0CC8
:100EF000F700F70CF70C1F30F7057708BF39B83843
:100F0000DE005D08DF005E08E0008312FC2583162A
:100F100006118312061583165D08DE005E08303C5C
:100F2000031D972F0610831206109A2F8316861022
:100F300083128610FF30831688000612831206166D
:100F40008316861283128616A52F831686128312A5
:100F50008612AA2F8316861283128616AF2FFF30B1
:100F600083168800831208088316DF008612831216
:100F700086128316061083120614831686108312B7
:100F8000861483165F08F8007808DC005B0BD82F06
:100F90005A080739DE000130F7005E08F80003192F
:100FA000D52F0310F70DF80BD12F7708DC04E82FAD
:100FB0005A080739DE000130F7005E08F80003190F
:100FC000E52F0310F70DF80BE12F7708FF3ADC054A
:100FD00006118312061183165D08DF005908E00030
:100FE0008312FC25831606118312061583165D08ED
:0C0FF000DF005C08E0008312FC25080014
:101000008316C501450841078400831342188317DE
:1010100080080319E7284508410784008313421814
:1010200083170008523C031C3D28450841078400F3
:1010300083134218831720300002D000DA000530F5
:10104000DB008A11831224268A1578088316CF00C4
:10105000F9000530F800CA308400831379088A113A
:10106000831204208A158000F90A840AF80B3928B3
:101070003B2883162E2875288316450841078400CF
:1010800083134218831700087E3C031C6F28450811
:101090004107840083134218831753300002D000A5
:1010A000DA000530DB008A11831224268A157808BD
:1010B0008316CF00F9000530F800CA30840083138E
:1010C00079088A1183120A218A158000F90A840A94
:1010D000F80B6B286D288316602875288316CA01C3
:1010E000CB01CC01CD01CE01831205308316DA008D
:1010F0004308DB008A11831224268A157808831698
:101100003F077F3C03189128BF010730DA004308EE
:10111000DB008A11831224268A1501307807831692
:10112000C007C6014608043C031CE428C701073079
:10113000DA004308DB008A11831224268A15780816
:10114000831647020318E028CA3046078400831339
:101150000008CF00F7004708F8000319B328031070
:10116000F70CF80BAF28771CDE28C80143084802AB
:101170000318DE28C901430849020318DC2849087E
:101180003F07CF004708DA004308DB008A118312CB
:1011900024268A157808831640074807D0004F0890
:1011A000D9005008DA004408DB008A1183125F2757
:1011B0008A158316C90ABB28C80AB628C70A972801
:1011C000C60A4308BF079228C50ABF0A022883122D
:1011D000080083164B084D02D9005908D91FF22880
:1011E0005908003CD4004C084E02D9005908D91FB8
:1011F000FB285908003CD5004B08D0004C08D10012
:101200004B084D0203180729FF30D200092901308D
:10121000D2004C084E0203181029FF30D3001229C7
:101220000130D3005508803AF7005408803A77021D
:1012300003191C2903187E290230DA005508DB0047
:101240008A11831224268A15831654087802FA011B
:10125000F700F71BFA03D6007A08D700D801D41B91
:101260007D2958085402031C7D295008D9005108D3
:10127000DA004F08DB008A1183125F278A15831674
:10128000D71F58290230DA005508DB008A11831273
:1012900024268A157808FA01F700F71BFA0383164B
:1012A000D6077A0803187A0FD7075208D0077B2988
:1012B0000230DA005508DB008A11831224268A15D1
:1012C00078088316D9000230DA005408DB008A114E
:1012D000831224268A15780883165902FA01F7002A
:1012E000F71BFA03D6077A0803187A0FD7075208B4
:1012F000D0075308D107D80A2F29DF290230DA0096
:101300005408DB008A11831224268A158316550897
:101310007802FA01F700F71BFA03D6007A08D70023
:10132000D801D51BDF2958085502031CDF295008B6
:10133000D9005108DA004F08DB008A1183125F27B9
:101340008A158316D71FBA290230DA005408DB0049
:101350008A11831224268A157808FA01F700F71BF0
:10136000FA038316D6077A0803187A0FD7075308AB
:10137000D107DD290230DA005408DB008A1183121C
:1013800024268A1578088316D9000230DA00550819
:10139000DB008A11831224268A15780883165902E5
:1013A000FA01F700F71BFA03D6077A0803187A0F39
:1013B000D7075208D0075308D107D80A91298312BA
:1013C00008008316C3080319062A420840020318BE
:1013D000EE294008C5004208C600F2294208C500AF
:1013E0004008C60045084602031C052A3F08CB00FA
:1013F0004508CC004108CD004508CE004408CF0088
:101400008312E9208316C50AF2293A2A3F08CB0045
:101410004008CC004108CD004008CE004408CF0071
:101420008312E92083163F08CB004208CC00410814
:10143000CD004208CE004408CF008312E920831675
:101440003F08CB004008CC003F08CD004208CE004A
:101450004408CF008312E92083164108CB004008DE
:10146000CC004108CD004208CE004408CF008312D2
:10147000E9208316831208008316C0018A118312A3
:101480004B268A150F308316BF000530C000C201FD
:101490002330C1000130C300C40083120020831632
:1014A000BF01C0017F30C1003F30C200C301013025
:1014B000C4008312E12108308316BF001330C0003E
:1014C0007630C1003C30C200C3010130C400831239
:1014D000E1210B308316BF001730C0003C30C10043
:1014E0002330C200C3010130C4008312E1210B305C
:1014F0008316BF002930C0003C30C1003830C20024
:10150000C3010130C4008312E12142308316BF00C1
:101510001630C0007330C1002330C200C301013057
:10152000C4008312E12142308316BF002A30C0007C
:101530007330C1003830C200C3010130C4008312CF
:10154000E12108308316CB002630CC007630CD0068
:101550002630CE000130CF008312E9203F308316C1
:10156000CB001330CC003F30CD003C30CE000130FA
:10157000CF008312E92016308316BF001930C00057
:10158000C2013230C1000130C300C4008312002008
:101590000D308316BF002C30C000C2013E30C100A8
:1015A0000130C300C400831200204C308316BF00FA
:1015B0001930C000C2013830C1000130C300C4007E
:1015C000831200200800221022088316870083124D
:1015D0000714A21022088316870083128710003098
:1015E000F8001F08C73978049F0005308316C00033
:1015F0008A1183120C278A151F151F19FD2A1E0830
:10160000FA0083161E08B2007A08B3003308013CC2
:1016100003182D2B0030B2020230031C0330B3023A
:10162000320DBF00330DC000BF0DC00DBF0DC00D8A
:10163000BF0DC00DBF0DC00DBF0DC00DBF0DC00D46
:101640008030BF05B701400CB600B60C3F30B60580
:101650004030B6070318B70A452B320DBF00330DD3
:10166000C000BF0DC00DBF0DC00DBF0DC00DBF0D23
:10167000C00DBF0DC00DBF0DC00D8030BF05B7013F
:10168000400CB600B60C3F30B6053608F8003708F7
:10169000F9008312080022102208831687008312A3
:1016A0000710A210220883168700831287140830BF
:1016B000F8001F08C73978049F0005308316C00062
:1016C0008A1183120C278A151F151F19652B1E08F6
:1016D000FA0083161E08B4007A08B500340DBF0066
:1016E000350DC000BF0DC00DBF0DC00DBF0DC00D2D
:1016F000BF0DC00DBF0DC00DC030BF05FA01400CBD
:10170000F900F90C3F30F9057908403CB800B901FF
:101710007A08031C7A0FB9023808F8003908F90072
:10172000831208000B308316BF001730C0003C3016
:10173000C1002330C2000130C300C4008312E12184
:1017400016308316BF001930C000C2013230C1000C
:101750000130C300C4018312002004308316BF008F
:10176000FA30C0008A1183120C278A158316BF0B2A
:10177000B02B0C30BF001830C0003B30C10022300D
:10178000C2000130C300C4018312E1211630831668
:10179000BF001930C000C2013230C1000130C300A7
:1017A000C400831200208A110A16BF2C8316C401BC
:1017B0004108C5004108013CC600C2080319452C78
:1017C00044083F02C70045084007C80044083F07D7
:1017D000C90045084007CA004708CB004808CC00AC
:1017E0004908CD004A08CE004308CF008312E92003
:1017F000831644083F02C70045084002C800440859
:101800003F07C90045084002CA004708CB00480806
:10181000CC004908CD004A08CE004308CF0083120F
:10182000E920831645083F02C70044084007C80066
:1018300045083F07C90044084007CA004708CB00D5
:101840004808CC004908CD004A08CE004308CF0024
:101850008312E920831645083F02C700440840026E
:10186000C80045083F07C90044084002CA004708AD
:10187000CB004808CC004908CD004A08CE004308F8
:10188000CF008312E920CC2C83163F084407C70001
:1018900040084507C8004708D9004808DA0043084F
:1018A000DB008A1183125F278A1583163F084507DC
:1018B000C70040084407C8004708D9004808DA00B4
:1018C0004308DB008A1183125F278A1583164408B8
:1018D0003F02C70040084507C8004708D90048082C
:1018E000DA004308DB008A1183125F278A1583160A
:1018F00045083F02C70040084407C8004708D90010
:101900004808DA004308DB008A1183125F278A1532
:1019100083163F084507C70044084002C80047082F
:10192000D9004808DA004308DB008A1183125F27D8
:101930008A1583163F084407C70045084002C800BF
:101940004708D9004808DA004308DB008A118312EF
:101950005F278A15831644083F02C70045084002E6
:10196000C8004708D9004808DA004308DB008A119C
:1019700083125F278A15831645083F02C700440873
:101980004002C8004708D9004808DA004308DB00D5
:101990008A1183125F278A158316C61FDF2C44081D
:1019A000C40AC7000230DA004708DB008A1183123C
:1019B00024268A157808033E8316C607F22C4408AD
:1019C000C40AC7004508C5034702C7000230DA0051
:1019D0004708DB008A11831224268A157808053E01
:1019E0008316C6074408803AF7004508803A770214
:1019F0000319DD2B031CDD2B831208008316C001A5
:101A00008A1183124B268A158316BF01C0017F30CD
:101A1000C1003F30C200C3010130C4008312E12184
:101A200008308316BF001530C000C2017030C100FD
:101A30000130C300C4008312002030308316BF0081
:101A40001530C000C201A030C1000130C300C40085
:101A5000831200205C308316BF001530C000C20125
:101A60007030C1000130C300C40083120020153063
:101A70008316BF000B30C0000830C100C201013026
:101A8000C3008312D6233F308316BF000B30C00043
:101A90000830C100C2010130C3008312D62369306F
:101AA0008316BF000B30C0000830C100C2010130F6
:101AB000C3008312D62324308316BF002C30C0000D
:101AC000C201A730C1000130C300C400831200204E
:101AD00054308316BF002A30C0005E30C10035305C
:101AE000C200C3010130C4008312E12161308316BA
:101AF000BF002A30C0006B30C1003530C200C301C6
:101B00000130C4008312E12146308316BF002C301F
:101B1000C000C201AD30C1000130C300C400831257
:101B2000002070308316BF002C30C000C2017C3012
:101B3000C1000130C300C4008312002007308316A7
:101B4000BF003130C000C2016330C1000130C300AA
:101B5000C4008312002004308316BF002D30C00063
:101B60002030C1003A30C200C3010130C4008312EA
:101B7000E121E32278088316B00083124B23780812
:101B80008316B10030080C3C0318032E3008193CB2
:101B9000031C032E3108053C0318032E31080F3CAB
:101BA000031C032E051183120515831605128312DB
:101BB000051283168512831285128316091083126B
:101BC000091031300C1EE22D99008316B001B101CD
:101BD0000430BF00FA30C0008A1183120C278A1526
:101BE0008316BF0BEA2D051183120511831605120A
:101BF000831205128316851283128512831609102B
:101C00008312091083163008363C0318442E30081E
:101C1000473C031C442E3108053C0318442E310870
:101C20000F3C031C442E0511831205118316051267
:101C300083120516831685128312851283160910E6
:101C40008312091032300C1E232E99008316B00126
:101C5000B1010430BF00FA30C0008A1183120C2792
:101C60008A158316BF0B2B2E0511831205118316BF
:101C700005128312051283168512831285128316AC
:101C800009108312091083163008563C0318902E51
:101C90003008713C031C902E3108053C0318902E2F
:101CA00031080F3C031C902E051183120515831675
:101CB0000512831205168316851283128512831668
:101CC00009108312091033300C1E642E9900043061
:101CD0008316BF00FA30C0008A1183120C278A15C0
:101CE0008316BF0B6A2EB001B1010430BF00FA3079
:101CF000C0008A1183120C278A158316BF0B772E1A
:101D0000051183120511831605128312051283161D
:101D10008512831285128316091083120910831607
:101D20003008603C0318D12E30086B3C031CD12EC8
:101D30003108293C0318D12E3108353C031CD12E23
:101D400005118312051183160512831205128316DD
:101D500085128312851683160910831209103430F8
:101D60000C1EB02E99008316B001B1010430BF00E3
:101D7000FA30C0008A1183120C278A158316BF0B14
:101D8000B82E051183120511831605128312051250
:101D90008316851283128512831609108312091087
:101DA00083163008413C0318122F3008503C031CA6
:101DB000122F3108293C0318122F3108353C031C1F
:101DC000122F0511831205158316051283120512B1
:101DD0008316851283128516831609108312091043
:101DE00035300C1EF12E99008316B001B10104307C
:101DF000BF00FA30C0008A1183120C278A1583169F
:101E0000BF0BF92E051183120511831605128312DB
:101E10000512831685128312851283160910831208
:101E2000091083163008033C03182A2F3008143C8D
:101E3000031C2A2F3108313C03182A2F31083A3C61
:101E4000031C2A2F83123C228316B001B1010130FA
:101E5000F8002D2F8312B92D831683128A110A16CA
:101E6000C42C42308316BF001630C0007330C1004E
:101E70002330C2000130C300C4008312E1214C3082
:101E80008316BF001930C000C2013830C1000130D4
:101E9000C300C4018312002004308316BF00FA304F
:101EA000C0008A1183120C278A158316BF0B4F2F8F
:101EB0004330BF001730C0007230C1002230C20072
:101EC0000130C300C4018312E1214C308316BF00EE
:101ED0001930C000C2013830C1000130C300C40055
:101EE000831200208A110A16E82C0B308316BF00DB
:101EF0002930C0003C30C1003830C2000130C3007E
:101F0000C4008312E1210D308316BF002C30C000C5
:101F1000C2013E30C1000130C300C4018312002061
:101F200004308316BF00FA30C0008A1183120C27D8
:101F30008A158316BF0B932F0C30BF002A30C000C8
:101F40003B30C1003730C2000130C300C4018312EE
:101F5000E1210D308316BF002C30C000C2013E309D
:101F6000C1000130C300C400831200208A110A1688
:021F70000D2D35
:102000008316C0010A1283124B260A168316BF01DB
:10201000C0017F30C1003F30C200C3010130C400A5
:102020000A128A158312E1210A168A1116308316C4
:10203000BF001430C0006930C1002330C200C301AA
:102040000130C4000A128A158312E1210A168A118E
:1020500042308316CB001430CC004230CD00233008
:10206000CE000130CF000A128A158312E9200A1629
:102070008A111D308316CB000F30CC006230CD00AA
:102080000F30CE000130CF000A128A158312E920EA
:102090000A168A1104308316BF002D30C00020308C
:1020A000C1003A30C200C3010130C4000A128A15CF
:1020B0008312E1210A168A1159308316BF002A3093
:1020C000C0006530C1003530C200C3010130C4001A
:1020D0000A128A158312E1210A168A116B308316BF
:1020E000BF002A30C0007730C1003530C200C301C4
:1020F0000130C4000A128A158312E1210A168A11DE
:102100001D308316BF000630C000C2014730C10039
:102110000130C300C4000A128A15831200200A1677
:102120008A1118308316BF00C000C2015430C100AC
:102130000130C300C4000A128A15831200200A1657
:102140008A1144308316BF001830C000C2015C30D1
:10215000C1000130C300C4000A128A158312002096
:102160000A168A1107308316BF003130C000C20141
:102170006330C1000130C300C4000A128A15831203
:1021800000200A168A1129308316BF002C30C000A7
:10219000C2016830C1000130C300C4000A128A15B0
:1021A000831200200A168A115C308316CB0030306F
:1021B000CC006130CD003030CE000130CF000A12AB
:1021C0008A158312E9200A168A116E308316CB0015
:1021D0003030CC007430CD003030CE000130CF0034
:1021E0000A128A158312E9200A168A1171308316A1
:1021F000CB002D30CC007130CD003330CE0001301B
:10220000CF000A128A158312E9200A168A110A12CF
:102210008A15E3220A168A1178088316B0000A127A
:102220008A1583124B230A168A1178088316B10087
:102230003008133C031859293008283C031C59293D
:102240003108113C0318592931081E3C031C592937
:1022500005118312051183160512831205168316C4
:1022600085128312851683160910831209103630E1
:102270000C1E382999008316B001B1010430BF004B
:10228000FA30C0000A1283120C270A168316BF0BFD
:1022900040290511831205118316051283120512B8
:1022A0008316851283128512831609108312091072
:1022B00083163008453C03189A2930085A3C031C01
:1022C0009A293108113C03189A2931081E3C031C35
:1022D0009A29051183120515831605128312051616
:1022E000831685128312851683160910831209102E
:1022F00037300C1E792999008316B001B1010430E2
:10230000BF00FA30C0000A1283120C270A16831687
:10231000BF0B812905118312051183160512831243
:1023200005128316851283128512831609108312F3
:10233000091083163008413C0318DB293008553C4E
:10234000031CDB293108293C0318DB293108353C03
:10235000031CDB2905118312051183160512831254
:1023600005128316851283128512831609108312B3
:10237000091438300C1EBA2999008316B001B10136
:102380000430BF00FA30C0000A1283120C270A166C
:102390008316BF0BC229051183120511831605127E
:1023A0008312051283168512831285128316091073
:1023B0008312091083163008603C03181C2A300869
:1023C0006B3C031C1C2A3108293C03181C2A3108C9
:1023D000353C031C1C2A05118312051583160512B2
:1023E0008312051283168512831285128316091033
:1023F0008312091439300C1EFB2999008316B00191
:10240000B1010430BF00FA30C0000A1283120C2759
:102410000A168316BF0B032A0511831205118316B2
:1024200005128312051283168512831285128316F4
:1024300009108312091083163008033C0318362A4A
:1024400030080F3C031C362A3108313C0318362A69
:1024500031083A3C031C362A0A128A1583123C22A0
:102460000A168A110130F800382A831683120729C8
:102470008A110A16EB2C8316C0010A1283124B260E
:102480000A168316BF01C0017F30C1003F30C20071
:10249000C3010130C4000A128A158312E1210A1611
:1024A0008A1107308316BF003130C000C20163308B
:1024B000C1000130C300C4000A128A158312002033
:1024C0000A168A1104308316BF002D30C000203058
:1024D000C1003A30C200C3010130C4000A128A159B
:1024E0008312E1210A168A110A128A15E3220A16BA
:1024F0008A1178088316B0000A128A1583124B23BA
:102500000A168A1178088316B1003008033C0318B4
:102510009F2A3008143C031C9F2A3108323C0318C0
:102520009F2A31083A3C031C9F2A0A128A158312FB
:102530003C220A168A110130F800A12A8316831260
:10254000742A8A110A16102D840183131F30830503
:10255000193083169900A2309800903083129800A9
:10256000FF30A200F6018316BA01BC01BB01BD0118
:102570001F149F141F159F1107309C008312A00188
:10258000A1014330A3006F30A4006E30A500743069
:10259000A6007230A7006F30A8006C30A900203070
:1025A000AA005230AB006530AC006D30AD006F302A
:1025B000AE007430AF006F30B000B1014C30B200EB
:1025C0007530B3006330B4006530B5007330B600C9
:1025D000B7014130B8007530B9006430BA006930D5
:1025E000BB006F30BC00BD014330BE006F30BF0088
:1025F0007230C0007430C1006930C2006E30C30058
:102600006130C4007330C500C6014130C7006D3071
:10261000C8007030C9006C30CA006930CB00663029
:10262000CC006930CD006330CE006130CF00643023
:10263000D0006F30D1007230D200D3017030D4009E
:102640007230D5006530D6006E30D7006430D800C7
:102650006530D9007230DA00DB016130DC007030A7
:10266000DD006130DE006730DF006130E000723095
:10267000E100E2014D30E3006530E4006E30E5003A
:102680007530E600E7015630E8006F30E9006C3045
:10269000EA007530EB006D30EC006530ED006E3017
:1026A000EE00EF015030F0007530F1006E30F200B6
:1026B0007430F3006130F400F50143308316A0005C
:1026C0006530A1006E30A2007430A3007230A40007
:1026D0006F30A500A6015430A7006F30A800643009
:1026E000A9006F30AA007330AB00AC014E30FC0083
:1026F0004F30FD00FE015330AD004930AE00AF0158
:10270000831285010B3083168500003086008030EF
:1027100087008312A20000308316880009108910F8
:10272000091186138312861783161F109F101F1519
:102730009F111F1383121F179F1783169F17831252
:102740001F1401308316BF000A128312A62E0A1628
:102750008316C0010A1283124B260A160430831610
:10276000BF00FA30C0000A1283120C270A16831623
:10277000BF0BB12BBD013D08BF000A1283122127F8
:102780000A168316BC01BB013C08013C031C1E2C2D
:102790003C08FA003B080A128312EA210A16831643
:1027A000BF003030DF003F08E0000A128312FC2532
:1027B0000A168316BB0A0319BC0A3B08403C031DDA
:1027C000E42BBC080319142C3B08803C031DEB2BA5
:1027D000BC080319142C3B08C03C031DF22BBC0899
:1027E0000319142CBB08031DF82B3C0BF82B142CDD
:1027F0003B08403C031DFF2B3C0BFF2B142C3B08DC
:10280000803C031D062C3C0B062C142C3B08C03CC2
:10281000031D0D2C3C0B0D2C142CBB08031D1D2C73
:102820003C08023C031D1D2C0130BD073D08BF00C4
:102830000A12831221270A168316C42BBD013D08F4
:10284000BF000A12831221270A168316BC01BB019E
:102850003C08013C031C822C3C08FA003B080A128D
:102860008312F3230A168316BF003130DF003F08BE
:10287000E0000A128312FC250A168316BB0A03190C
:10288000BC0A3B08403C031D482CBC080319782CAB
:102890003B08803C031D4F2CBC080319782C3B08D7
:1028A000C03C031D562CBC080319782CBB08031D23
:1028B0005C2C3C0B5C2C782C3B08403C031D632CAF
:1028C0003C0B632C782C3B08803C031D6A2C3C0B92
:1028D0006A2C782C3B08C03C031D712C3C0B712CDE
:1028E000782CBB08031D812C3C08023C031D812C65
:1028F0000130BD073D08BF000A1283123F2F0A16A0
:102900008316282C0830BF00FA30C0000A12831248
:102910000C270A168316BF0B842CC0010A128312DF
:102920004B260A168316BA010A128A1583123C2214
:102930000A168A110A128A15E3220A168A117808E1
:102940008316B0000A128A1583124B230A168A11C5
:1029500078088316B10030080A3C0318D42C3008DC
:102960003C3C031CD42C3108133C0318D42C3108F4
:102970001E3C031CD42C0A128A158312922B0A16B1
:102980008A110A128A15FE2C0A168A11043083163F
:10299000BF00FA30C0000A1283120C270A168316F1
:1029A000BF0BC92CB001B1013008413C0318F92C10
:1029B0003008733C031CF92C3108133C0318F92C24
:1029C00031081E3C031CF92C0A128A158312312F80
:1029D0000A168A11002804308316BF00FA30C0009E
:1029E0000A1283120C270A168316BF0BEE2CB001B5
:1029F000B10130080A3C03181E2D3008283C031C86
:102A00001E2D31082C3C03181E2D3108383C031CA8
:102A10001E2D0A128A158312752F0A168A113B2A57
:102A200004308316BF00FA30C0000A1283120C274C
:102A30000A168316BF0B132DB001B10183129A2C15
:022A4000630031
:02400E00713F00
:00000001FF
;PIC16F877A
;CRC=3E4B  CREATED="18-ene-17 19:28"
