:0600000077EF22F0000C76
:08000800046ED8CF05F0E0CF33
:1000100006F00001E9CF0CF0EACF07F0E1CF08F0DD
:10002000E2CF09F0D9CF0AF0DACF0BF0F3CF12F01C
:10003000F4CF13F0FACF14F0F5CF15F0F6CF16F099
:10004000F7CF17F000C00EF001C00FF002C010F0A3
:1000500003C011F0F2AA30EF00F0F2B457EF00F055
:100060000EC000F00FC001F010C002F011C003F08C
:100070000CC0E9FF07C0EAFF078E08C0E1FF09C016
:10008000E2FF0AC0D9FF0BC0DAFF12C0F3FF13C0B2
:10009000F4FF14C0FAFF15C0F5FF16C0F6FF17C035
:1000A000F7FF045006C0E0FF05C0D8FF1000512A3A
:1000B000D8B4522A542A54500B0802E2532A546AE4
:1000C0000B0ED76EDB0ED66EF29430EF00F03C488C
:1000D000544D4C3E3C484541443E3C5449544C45AB
:1000E0003E576562536572766572205049433138D8
:1000F000463435353020454E4332384A36303C2F71
:100100005449544C453E3C2F484541443E3C424FA7
:1001100044593E3C48313E5465737420436F6E65CC
:100120007869F36E205049433138463435353020F4
:100130007920454E4332384A36302056312E303CF5
:100140002F48313E00003C2F424F44593E3C2F483F
:10015000544D4C3E0000485454502F312E31203223
:100160003030204F4B0D0A00436F6E74656E742D56
:10017000547970653A20746578742F68746D6C0DCD
:100180000A00436F6E74656E742D4C656E677468FB
:100190003A2025750D0A00001D6A040E1E6EA30E7E
:1001A0001F6E206A216A010E226EF0EF22F0C00E4F
:1001B000196EA80E1A6E010E1B6E6F0E1C6EC00E0D
:1001C000276EA80E286E010E296E2A6EFF0E236E72
:1001D000246E256E266AF2EF22F0830ED56E0B0E8A
:1001E000D76EDB0ED66EF28AC00EF212AEEF04F0BE
:1001F00093928A92948E93968A86939A8A8A7DEFB6
:1002000002F00201F66BF651070814E3D890F537B7
:1002100002E28A9001D08A80939093928A82948E8F
:1002200082BE02D0D89001D0D880F73793928A92BC
:10023000F62BE9D7F7C201F00001000C93968A96DD
:10024000EAC2ECF2EAC2F5F20001DBDF0201F56B73
:100250000001D7DF01C0EBF293968A860201EBC260
:1002600001F00001000C93968A96FF0E0201F56FD3
:100270000001C7DF93968A8692EF02F0010EEA6EC4
:100280007A0EE96EEF500EE00F0E016E006A002E3E
:10029000FED7012EFBD78F0E006E002EFED700007A
:1002A000EF2EF2D797EF02F093968A960201F05163
:1002B0004009F26FF56F0001A4DFF1C2F5F2A1DF92
:1002C00093968A86000C93968A960201EF51A009B4
:1002D000F16FF56F000195DFF0C2F5F292DF9396B2
:1002E0008A86000C93968A960201F2518009F46F77
:1002F000F56F000186DFF3C2F5F283DF93968A86FD
:10030000000C1F0E0201EF6F030EF06F0001DBDF28
:10031000020EEA6EEE0EE96EEFCFF1F21F0E020151
:10032000F26FF1C2F3F20001DDDF000C93968A96C2
:1003300081C183F181C1F5F2000163DF0201F56B38
:1003400000015FDF0201F56B00015BDF01C082F19C
:1003500093968A86010182C101F00001000C020E11
:100360000201EE6F140EED6F0001CBDF140E0201DF
:10037000F06F7EC1F1F2000197DF010EEA6E7F0E91
:10038000E96EEFCF83F1160E0201F06F83C1F1F237
:1003900000018ADF010EEA6E800EE96EEFCF83F175
:1003A000170E0201F06F83C1F1F200017DDF030E31
:1003B0000201EE6F0A0EED6F0001A3DF0A0E0101CC
:1003C000816F0001B3DF01B0F9D7000C020E02010A
:1003D000EE6F140EED6F000194DF140E0201F06F4A
:1003E0007EC1F1F2000160DF120E0201F06F010E1A
:1003F000F16F000159DF030E0201EE6F0A0EED6F7F
:1004000000017FDF0A0E0101816F00018FDF01B063
:10041000F9D7020E0201EE6F140EED6F000171DFCD
:10042000120E0201F06FF16B00013EDF180E0101A8
:10043000816F00017BDF01C07FF1190E0101816F27
:10044000000174DF01C080F101017FC101F080C1B2
:1004500002F0000137EF02F01F0E0201EF6F0C0EE9
:10046000F06F000130DF01017E6B0001AFD702C0E9
:100470007DF101C07CF101017A51020804E17A6B3F
:100480007DB17A2B0AD07D917AB17D817E6B7DC161
:1004900080F17CC17FF1000162DF020E0201EE6F8C
:1004A000ED6F00012EDF020E0101816F00013EDFC2
:1004B00001C07BF101017B917AB17B81020E0201C7
:1004C000F06F7BC1F1F20001EFDE01017A5302E02F
:1004D000150E01D0120E7E6F040E0201F06F7EC168
:1004E000F1F20001E1DE1F0E0201F26F040EF36F64
:1004F0000001F8DE5AEF03F07BD61D0E0201EA6F11
:1005000000019CDE01C079F1010179A702D0000150
:10051000F4D77951FF0A010BD8B402D00001EDD70E
:100520000001A1D6010E01017A6F0001A7D6506A21
:100530005980566A556A080E0201F06FF16B00018E
:10054000B3DE090E0201F06FF16B0001ADDE0C0E9F
:100550000201F06FF70EF16F0001A6DE0D0E020131
:10056000F06F1B0EF16F00019FDE0A0E0201F06FAB
:10057000F70EF16F000198DE0B0E0201F06F1B0EFB
:10058000F16F000191DE040E0201F06FF80EF16FC1
:1005900000018ADE050E0201F06F1B0EF16F0001F3
:1005A00083DE020E0201EE6FED6B0001AADE020196
:1005B000F06B0D0EF16F000177DE020E0201F06F9D
:1005C000320EF16F000170DE030E0201F06F400E7B
:1005D000F16F000169DE090E0201F06F3F0EF16F4D
:1005E000000162DE060E0201F06F120EF16F0001D3
:1005F0005BDE070E0201F06F0C0EF16F000154DE9E
:100600000A0E0201F06FEE0EF16F00014DDE0B0ECF
:100610000201F06F050EF16F000146DE030E0201CC
:10062000EE6F040EED6F00016CDE040E0201F06F40
:100630001DC0F1F2000138DE050E0201F06F1EC090
:10064000F1F2000131DE020E0201F06F1FC0F1F283
:1006500000012ADE030E0201F06F20C0F1F200015A
:1006600023DE0201F06B21C0F1F200011DDE010E5C
:100670000201F06F22C0F1F2000116DE120E02013B
:10068000EA6F0001DBDD01C05AF0100E01017E6F40
:10069000010E806F7F6B000162DE140E01017E6F20
:1006A000040E806F720E7F6F000159DE01017A6BBC
:1006B0000001D2D61F0E0201F26F040EF36F00018B
:1006C00011DEAFEF04F05992FF0E0101166F176FA4
:1006D000186F196F1A6F1B6F1F6B1E6B1D6B1C6BD6
:1006E0000001B0EF04F07FC14FF07EC14EF07DC13C
:1006F0004DF07CC14CF08FEF04F00101846B856BF1
:10070000010E866FDA6AD96A896F7C0E886F010ED6
:10071000EA6E800EE96E89C1E2FF88C1E1FF86C101
:1007200087F1D890E550EE02F3508423F4508523EE
:10073000872FF7D784C1DEFF85C184F1856BD8B0E0
:10074000852B882BD8B4892B862B86510508DFE1B1
:100750000001E2EF03F0016A026A006A036A010124
:10076000825102E1815118E0100E836FD8907F37DB
:100770008037003603368251035C02E18151005C10
:1007800007E38151005ED8A003068251035ED88042
:1007900001360236832FEAD7000103EF04F04FC081
:1007A0007FF14EC07EF14DC07DF14CC07CF1410E19
:1007B0000101836FC60E826F4E0E816F6D0E806FCA
:1007C00000019BD7390E010100244C6E300E012030
:1007D0004D6E000E02204E6E000E03204F6E4EC076
:1007E00000F04FC001F0026A036A4FC07EF14EC0B4
:1007F0007DF14FC080F14EC07FF17F0E826FFF0E02
:10080000816F0001A8D700C001F003C002F090EF93
:1008100004F00101796B7951040869E37951240DE1
:10082000F350036A600F016E000E032201C07AF1DB
:1008300003C07BF17AC1E9FF7BC1EAFF0A0EEF6ECC
:10084000230E7A25E96E000E7B21EA6EEF90230ECF
:100850007A25E96E000E7B21EA6EEF82230E7A255F
:10086000E96E000E7B21EA6EEF84230E7A25E96E95
:10087000000E7B21EA6EEF98230E7A25E96E000EBA
:100880007B21EA6EEF960F0E7A25E96E000E7B2132
:10089000EA6EEF3C01D016D00F0E7A25E96E000EFD
:1008A0007B21EA6EEFCF7CF17CC17AF2000102EC91
:1008B00000F00F0E01017A25E96E000E7B21EA6E31
:1008C000FF0EEF6E210E7A25E96E000E7B21EA6E97
:1008D000EC6AED52240EEF6E100E7A25E96E000ED2
:1008E0007B21EA6EEC6AED52EF6A792B94D7D650F1
:1008F0001427D7501523CE501427CF501523CC5092
:100900001427000E1523B2501427B35015237F6B04
:100910007E6B15C17DF114C17CF10001E4D63FD797
:1009200002C05FF001C05EF0040E5F265F50120847
:100930000AE2FF0A03E15E50870805E2880E5E5E68
:10094000130E5F5AF3D75F50030802E3040E5F26CD
:10095000B1EF04F00101206B00013FD4CDD5B3D637
:1009600058D7F4EF22F059A001D02ED05980010EB3
:10097000555C02017A6F000E56587B6F7B511A0846
:1009800009E2FF0A03E17A51F70804E21B0E7B6FCC
:10099000F70E7A6F1E0EF26F400EF36F0001A2DCAD
:1009A0000201EE6B0C0EED6F0001ABDC0C0E0201D0
:1009B000F06F7AC2F1F2000177DC0D0E0201F06FE8
:1009C0007BC2F1F2000170DC000C0201DE6BDD6B1A
:1009D00093968A963A0EF56F000113DC0201DE5100
:1009E000DC5D1BE303E1DB51DD5D17E2DAC203F0FE
:1009F000D9C2DFF2DAC2E0F2F56B000102DCE0C23C
:100A0000EAFFDFC2E9FF01C0EFFF0201D92BD8B432
:100A1000DA2BDD2BD8B4DE2BE2D793968A86DDC2A3
:100A200001F0DEC202F00001000CEBC2ECF2EAC2FF
:100A3000EDF20201ECC201F0EDC202F00001000C87
:100A4000010E0201EE6F190EED6F00015ADC190E56
:100A50000201EA6F00011EEC01F0015203E1000EF9
:100A6000016E82D059B004D07EDF000E016E7CD0C2
:100A700056C058F055C057F00201EE6BED6B000107
:100A800040DC0201F06B55C0F1F200010DDC010EFB
:100A90000201F06F56C0F1F2000106DC010E010107
:100AA000986F830E98C1DAF2E8CFD9F20201DC6BBD
:100AB000140EDB6F000189DF96C1EBF295C1EAF2FB
:100AC000B4DF02C096F101C095F1010184511A080A
:100AD00005E2FF0A17E18351F70814E3010EEA6EFD
:100AE000830EE96EEFB00ED088BF0CD087B90AD064
:100AF0008651040805E2FF0A05E18551EE0802E38C
:100B000087BF01D0FF0084C156F083C155F080C17A
:100B100003F07FC197F180C198F180C1EAFF7FC1E6
:100B2000E9FF010EE26E8F0EE16E060E016EE6CF5A
:100B3000EEFF012EFCD782C103F081C1E9FF03C0A3
:100B4000EAFFFF0EEF6E965108080BE1955303E0A4
:100B50009551060806E181C1E9FF82C1EAFF95C10E
:100B6000EFFF5990010E016E0001EBEF1BF0010148
:100B7000AAC101F0ABC103F0AAC1ACF1ABC1ADF1A8
:100B8000AAC1E9FFABC1EAFFECCFAFF1ED52EFCF65
:100B9000AEF1AFC1EBF2AEC1EAF2000146DFADC18A
:100BA000EAFFACC1E9FF02C0ECFFED5201C0EFFF6C
:100BB000020E0101AA25016E000EAB21036E01C0D9
:100BC000ACF1AD6F020EAA25E96E000EAB21EA6E04
:100BD000ECCFAFF1ED52EFCFAEF1AFC1EBF2AEC162
:100BE000EAF2000122DFADC1EAFFACC1E9FF02C0B9
:100BF000ECFFED5201C0EFFF060E0101AA25016EC8
:100C0000000EAB21036E01C0ACF1AD6F060EAA253C
:100C1000E96E000EAB21EA6EECCFAFF1ED52EFCFF3
:100C2000AEF1AFC1EBF2AEC1EAF20001FEDEADC142
:100C3000EAFFACC1E9FF02C0ECFFED5201C0EFFFDB
:100C4000000C010E0201DA6F8E0ED96FDC6B1C0EE8
:100C5000DB6F0001BADE87DE010E0101AB6F8E0E85
:100C6000AA6F000184DF01018E2D08D08F5306E1A9
:100C70009251060803E19351040803E0000E016E4F
:100C80004ED09451020808E1955306E18CC1E9FF6A
:100C90008DC1EAFFEF6A14D0942D09D0955307E176
:100CA0008CC1E9FF8DC1EAFF010EEF6E09D08CC146
:100CB000E9FF8DC1EAFF020EEF6E000E016E2FD02C
:100CC0001950A65D29E11A50A75D26E11B50A85DC9
:100CD00023E11C50A95D20E18AC1E9FF8BC1EAFF35
:100CE000010EE26E960EE16E060E016EE6CFEEFF8D
:100CF000012EFCD7060E8A25E96E000E8B21EA6EC6
:100D00009CC1EFFF9DC1ECFF9EC1ECFF9FC1ECFFBA
:100D1000010E016E04D003D0000E016E00D0000160
:100D20004DEF09F01F0E0201EA6F00011EEC01F009
:100D300001B602D0000E01D0FF0E016E00D0000CF3
:100D4000E4C250F0070E0201E5271C0EE623EE6B0D
:100D5000020EED6F000181EC01F0020EEA6EE50E6D
:100D6000E96EEFCFE9F20201F06BE9C2F1F20001A6
:100D700054EC01F0020EEA6EE60EE96EEFCFE9F2F6
:100D8000010E0201F06FE9C2F1F2000154EC01F032
:100D9000020EEA6EE50EE96EEFCFE9F2020E0201F5
:100DA000F06FE9C2F1F2000154EC01F0020EEA6EBC
:100DB000E60EE96EEFCFE9F2030E0201F06FE9C231
:100DC000F1F2000154EC01F0000C93968A967A0E31
:100DD0000201F56F000101EC01F0EEC2F5F201EC49
:100DE00001F093968A86000C93968A967A0E0201F9
:100DF000F56F000101EC01F00201F2C203F0F151C4
:100E0000D8B4F207F107031012E0F0C203F0EFC20A
:100E1000E9FFF0C2EAFFEFCFF3F2F3C2F5F200010F
:100E200001EC01F00201EF2BD8B4F02BE6D793963A
:100E30008A860001000C0201EE6B020EED6F0001CC
:100E400081EC01F0020E0201F06FF80EF16F00016B
:100E500054EC01F0030E0201F06F1B0EF16F000164
:100E600054EC01F0060E0201EB271C0EEC23020EDF
:100E7000EA6EEB0EE96EEFCFEFF2060EF06FEFC207
:100E8000F1F2000154EC01F0020EEA6EEC0EE96E94
:100E9000EFCFEFF2070E0201F06FEFC2F1F20001A7
:100EA00054EC01F00201EE6B00018FDFE9C2F0F2B9
:100EB000E8C2EFF20201F26B060EF16F000194DF5F
:100EC0000201EE6B1D0EEEC2F0F2EF6FF26B060E3A
:100ED000F16F000189DF080E0201EE6F000175DF7E
:100EE0000201EA5302E1000E01D0060EEE6F00018E
:100EF0006CDF000C1C0E0201EA6F00011EEC01F019
:100F000001A210D01F0E0201F26F800EF36F0001DC
:100F100072EC01F01F0E0201EF6F800EF06F000106
:100F200063EC01F01C0E0201EF6F0A0EF06F00017E
:100F300063EC01F01F0E0201F26F080EF36F000167
:100F400072EC01F05A500508D8A4CDD01C0E020155
:100F5000EA6F00011EEC01F001500A0BF7E01C0ED5
:100F60000201EA6F00011EEC01F001A2BCD01F0ECD
:100F70000201EF6F080EF06F000163EC01F0020157
:100F8000EE6BED6B000181EC01F00201EA6B0001F8
:100F90001EEC01F001C0CBF2010E0201EA6F00016C
:100FA0001EEC01F001C0CCF2060E0201EA6F000156
:100FB0001EEC01F001C0CDF2070E0201EA6F000144
:100FC0001EEC01F001C0CEF20201CD2BD8B4CE2B25
:100FD000F06BCDC2F1F2000154EC01F0010E020100
:100FE000F06FCEC2F1F2000154EC01F0020E0201EA
:100FF000D86FCF0ED8C2DAF2D96FDC6B070EDB6F79
:101000000001E3DC0201D66BD6510F085EE31C0E33
:10101000EA6F00011EEC01F001A251D00201D2BB27
:1010200002D000014CD01F0EF26F800EF36F000152
:1010300072EC01F01F0E0201EF6F800EF06F0001E5
:1010400063EC01F01C0E0201EF6F0A0EF06F00015D
:1010500063EC01F01F0E0201F26F080EF36F000146
:1010600072EC01F01C0E0201EA6F00011EEC01F0AF
:1010700001500A0BF7E01F0E0201EF6F080EF06F30
:10108000000163EC01F00201F06BCDC2F1F200014E
:1010900054EC01F0010E0201F06FCEC2F1F200013A
:1010A00054EC01F0020E0201D86FCF0ED8C2DAF272
:1010B000D96FDC6B070EDB6F000187DC03D0020108
:1010C00004D000010201D62B9FD7F06BCBC2F1F206
:1010D000000154EC01F0010E0201F06FCCC2F1F2FC
:1010E000000154EC01F0000C010E0201CB6F000175
:1010F00019DE01C0A9F10101A93D03D0000E016E66
:10110000B8D0A9C1E4F20201E66BE56B000118DE7C
:1011100001018E6B010E8D6F080E906F8F6B060EA6
:10112000916F040E926F8C2D0BD0946B010E936F08
:10113000FF0E9F6FA06FA16FA26FA36FA46F17D058
:10114000946B020E936F8BC103F08AC1AAF18BC11D
:10115000ABF1010EEA6E9F0EE96E8BC1E2FF8AC110
:10116000E1FF060E016EE6CFEEFF012EFCD7010E69
:10117000EA6E950EE96EE26A1D0EE16E060E016ED4
:10118000E6CFEEFF012EFCD71CC09EF11BC09DF1E7
:101190001AC09CF119C09BF1060E8A25E96E000E5B
:1011A0008B21EA6EEFCF00F0ECCF01F0ECCF02F034
:1011B000ECCF03F000509B19AA6F01509C19AB6F44
:1011C00002509D19AC6F03509E19AD6FAA512314A4
:1011D000006EAB512414016EAC512514026EAD515A
:1011E0002614036E005206E1015204E1025202E1AC
:1011F000035209E02AC0A8F129C0A7F128C0A6F12E
:1012000027C0A5F116D0060E8A25E96E000E8B21A7
:10121000EA6EEFCF00F0ECCF01F0ECCF02F0ECCFB4
:1012200003F003C0A8F102C0A7F101C0A6F100C0FD
:10123000A5F1010EAB6F8D0EAA6F000198DC010EB7
:101240000201E96F9F0EE86F060EEA6FEC6B1C0E51
:10125000EB6F0001F0DD010E0201F06F8D0EEF6FFC
:10126000F26B1C0EF16F0001BFDD44DE010E016E5A
:101270000101000179EF09F0000E59B2010E000AD8
:1012800001E02FD0010E01018B6F7F0E8A6F010EDE
:101290008D6F890E8C6F0001D4D4015201E131D0E1
:1012A000B3EC04F0010189531AE1010EEA6E160E47
:1012B000E96E010EE26E7F0EE16E060E016EE6CF64
:1012C000EEFF012EFCD788C11FF187C11EF186C138
:1012D0001DF185C11CF1000114D003D00101598218
:1012E0000001010E01018B6F7F0E8A6F8C6B000174
:1012F000FBD6015202E0599203D0000E016E03D0DA
:1013000000D0010E016E04EF1CF0140E57240101F1
:10131000DE6F000E5820DF6FD851DE25DC6FD9510B
:10132000DF21DD6FDD511A0809E2FF0A03E1DC511C
:10133000F70804E2F80EDC5F1B0EDD5B0201EE6BCA
:10134000100EED6F000181EC01F0100E0201F06F44
:10135000DCC1F1F2000154EC01F0110E0201F06F5A
:10136000DDC1F1F2000154EC01F0010E0101DA5D82
:10137000006E000EDB59036E0050DC270350DD23A6
:10138000DD511A0809E2FF0A03E1DC51F70804E223
:10139000F80EDC5F1B0EDD5B120E0201F06FDCC18C
:1013A000F1F2000154EC01F0130E0201F06FDDC107
:1013B000F1F2000154EC01F01F0E0201F26F300E49
:1013C000F36F000172EC01F01F0E0201EA6F0001E1
:1013D0001EEC01F001BAF8D7160E0201EA6F000107
:1013E0001EEC01F001C0DDF1170E0201EA6F0001F1
:1013F0001EEC01F001C0DCF10101DCC101F0DDC136
:1014000002F00001000C140E57240201816F000E3F
:101410005820826F7D5181257F6F7E518221806FA0
:1014200080511A0809E2FF0A03E17F51F70804E23C
:10143000F80E7F5F1B0E805BEE6BED6B000181ECA5
:1014400001F00201F06B7FC2F1F2000154EC01F0F7
:10145000010E0201F06F80C2F1F2000154EC01F0C4
:10146000020E0201F06F7FC2F1F2000154EC01F0B4
:10147000030E0201F06F80C2F1F2000154EC01F0A2
:10148000000C020E0201E425016E000EE521036E40
:1014900001C0E6F2E76F020EE425E96E000EE521D9
:1014A000EA6EECCFE9F2ED52EFCFE8F2E9C2EBF2EF
:1014B000E8C2EAF2000115EC05F0E7C2EAFFE6C275
:1014C000E9FF02C0ECFFED5201C0EFFF040E020184
:1014D000E425016E000EE521036E01C0E6F2E76F20
:1014E000040EE425E96E000EE521EA6EECCFE9F288
:1014F000ED52EFCFE8F2E9C2EBF2E8C2EAF2000106
:1015000015EC05F0E7C2EAFFE6C2E9FF02C0ECFF16
:10151000ED5201C0EFFF0A0E0201E425016E000E3C
:10152000E521036E01C0E6F2E76F0A0EE425E96EDD
:10153000000EE521EA6EECCFE9F2ED52EFCFE8F2D2
:10154000E9C2EBF2E8C2EAF2000115EC05F0E7C2ED
:10155000EAFFE6C2E9FF02C0ECFFED5201C0EFFF77
:10156000000C010E01019E6F890E9EC1DAF2E8CFD8
:10157000D9F20201DC6B140EDB6F0001E5EC04F024
:1015800001018951F00B400803E0000E016E59D0B3
:1015900089510F0B006E00345D6E5D36FC0E5D16DA
:1015A000D96BD86BDB6B5DC0DAF10001AEDE02C037
:1015B00088F101C087F102017E6B5DC07DF2000100
:1015C00022DF01018751881103E0000E016E39D03E
:1015D000010E0201E56F890EE46F000152DF010187
:1015E0007F5180110CE07FC1E9FF80C1EAFF99C102
:1015F000EFFF9AC1ECFF9BC1ECFF9CC1ECFF060E14
:101600008125E96E000E8221EA6E95C1EFFF96C139
:10161000ECFF97C1ECFF98C1ECFF83C1E9FF84C1E7
:10162000EAFF92C1EFFF85C1E9FF86C1EAFF5D5085
:101630008B5D006E000E8C5900C0EFFFEC6E010E4A
:10164000016E00011EEF1CF00201DC6BDB6BDA6B3C
:10165000D96BD890D031D26FCF31D16FCEC2D4F206
:10166000CDC2D3F2D2C203F0D151D8B4D207D10740
:10167000031017E0D4C203F0D3C200F0020ED32748
:10168000D8B0D42B00C0E9FF03C0EAFFECCF03F0D1
:10169000ED52EF50D9270350DA23000EDB23DC2371
:1016A000E1D7CF51010B006E036A005003100AE02E
:1016B000D3C2E9FFD4C2EAFFEF50D927000EDA23E4
:1016C000DB23DC23DCC2D8F2DBC2D7F2DAC2D6F2EB
:1016D000D9C2D5F2D8C2D2F2D7C2D1F2D15302E1E7
:1016E000D25323E0DC6BDB6BE06BDF6BDAC2DEF244
:1016F000D9C2DDF2026A036AD151D925D96FD2511C
:10170000DA21DA6F0250DF21DB6F0350E021DC6F5A
:10171000DCC2D8F2DBC2D7F2DAC2D6F2D9C2D5F235
:10172000D8C2D2F2D7C2D1F2D9D7DAC203F0031E9F
:10173000D951FF0A016E03C002F00001000C93961C
:101740008A963A0E0201F56F000101EC01F00201E8
:10175000F56B000101EC01F001C0CFF293968A868F
:101760000201CFC201F00001000C0201CB5307E1DE
:10177000CC5305E1FF0E016E026E99D017D0CB2D30
:1017800015D0CC5313E10001DADF0201D06B01C0A8
:10179000CFF201C003F0000E006A0006001AFF0E2F
:1017A000031A00C001F003C002F081D0EE6BED6BB4
:1017B000000181EC01F00201EA6B00011EEC01F076
:1017C00001C0CDF2010E0201EA6F00011EEC01F032
:1017D00001C0CEF2100E0201F06FCDC2F1F2000195
:1017E00054EC01F0110E0201F06FCEC2F1F20001D3
:1017F00054EC01F00201CE511B081BE303E1CD5173
:10180000F70817E3010ECB5D006E000ECC59036E96
:101810000050CD270350CE23CE511A0809E2FF0A0B
:1018200003E1CD51F70804E2F80ECD5F1B0ECE5B4D
:101830000AD0010ECB5D006E000ECC59036E005035
:10184000CD270350CE23120EF06FCDC2F1F200016E
:1018500054EC01F0130E0201F06FCEC2F1F2000160
:1018600054EC01F01F0E0201F26F300EF36F000115
:1018700072EC01F01F0E0201EA6F00011EEC01F094
:1018800001BAF8D7160E0201EA6F00011EEC01F052
:1018900001C0CDF2170E0201EA6F00011EEC01F04B
:1018A00001C0CEF20201CDC201F0CEC202F00001B1
:1018B000000C5D50020179257B6F000E7A217C6F50
:1018C0007E6F7BC27DF200019EDD000CD6C2D7F296
:1018D000D5C2D8F2D4C2D9F2D3C2DAF2D7C200F05C
:1018E000D8C201F0D9C202F0DAC203F0000C020142
:1018F000CBC201F0CCC203F0CBC2CDF2CCC2CEF24F
:10190000CBC2E9FFCCC2EAFFECCFD0F2ED52EFCF71
:10191000CFF2D0C2EBF2CFC2EAF2000115EC05F033
:10192000CEC2EAFFCDC2E9FF02C0ECFFED5201C01A
:10193000EFFF020E0201CB25016E000ECC21036EDB
:1019400001C0CDF2CE6F020ECB25E96E000ECC2188
:10195000EA6EECCFD0F2ED52EFCFCFF2D0C2EBF285
:10196000CFC2EAF2000115EC05F0CEC2EAFFCDC20B
:10197000E9FF02C0ECFFED5201C0EFFF040E0201CF
:10198000CB25016E000ECC21036E01C0CDF2CE6FCF
:10199000040ECB25E96E000ECC21EA6EEFCFCFF21C
:1019A000ECCFD0F2ECCFD1F2ECCFD2F2D2C2D6F261
:1019B000D1C2D5F2D0C2D4F2CFC2D3F2000186DFB9
:1019C000CEC2EAFFCDC2E9FF00C0EFFF01C0ECFFCD
:1019D00002C0ECFF03C0ECFF080E0201CB25016E34
:1019E000000ECC21036E01C0CDF2CE6F080ECB25C8
:1019F000E96E000ECC21EA6EEFCFCFF2ECCFD0F241
:101A0000ECCFD1F2ECCFD2F2D2C2D6F2D1C2D5F223
:101A1000D0C2D4F2CFC2D3F2000158DFCEC2EAFF67
:101A2000CDC2E9FF00C0EFFF01C0ECFF02C0ECFF38
:101A300003C0ECFF0E0E0201CB25016E000ECC217F
:101A4000036E01C0CDF2CE6F0E0ECB25E96E000EF7
:101A5000CC21EA6EECCFD0F2ED52EFCFCFF2D0C274
:101A6000EBF2CFC2EAF2000115EC05F0CEC2EAFFBC
:101A7000CDC2E9FF02C0ECFFED5201C0EFFF100E36
:101A80000201CB25016E000ECC21036E01C0CDF208
:101A9000CE6F100ECB25E96E000ECC21EA6EECCF96
:101AA000D0F2ED52EFCFCFF2D0C2EBF2CFC2EAF2DA
:101AB000000115EC05F0CEC2EAFFCDC2E9FF02C07D
:101AC000ECFFED5201C0EFFF120E0201CB25016EBB
:101AD000000ECC21036E01C0CDF2CE6F120ECB25CD
:101AE000E96E000ECC21EA6EECCFD0F2ED52EFCFD2
:101AF000CFF2D0C2EBF2CFC2EAF2000115EC05F052
:101B0000CEC2EAFFCDC2E9FF02C0ECFFED5201C038
:101B1000EFFF000CFE0E0101B26FB16BB151040872
:101B2000D8A07AD0B151240DF350036A600F016E32
:101B3000000E032201C0AFF103C0B0F1AFC1E9FF55
:101B4000B0C1EAFFEF500A0865E00B0EAF25E96E61
:101B5000000EB021EA6EECCFB4F1ED52EFCFB3F14D
:101B6000020EAB25E96E000EAC21EA6EECCF03F05D
:101B7000ED52EF50B35D4EE10350B45D4BE1AFC1A8
:101B8000E9FFB0C1EAFFEF5202E1B1C1B2F10D0EBF
:101B9000AF25E96E000EB021EA6EECCFB4F1ED5244
:101BA000EFCFB3F1ABC1E9FFACC1EAFFECCF03F07B
:101BB000ED52EF50B35D2EE10350B45D2BE1070E03
:101BC000AF25E96E000EB021EA6EEFCFB3F1ECCF96
:101BD000B4F1ECCFB5F1ECCFB6F1060EAD25E96E60
:101BE000000EAE21EA6EEFCF00F0ECCF01F0ECCFAB
:101BF00002F0ECCF03F00050B35D0CE10150B45D96
:101C000009E10250B55D06E10350B65D03E1B1C1E3
:101C100001F06FD0B12B82D7B251FE0803E1FE0E66
:101C2000016E67D0B251240DF350036A600F016E4C
:101C3000000E032201C0AFF103C0B0F1010EAF25C9
:101C4000016E000EB021036E01C0B3F1B46FEA6EF5
:101C500001C0E9FFAEC1E2FFADC1E1FF0A0E016EB6
:101C6000E6CFEEFF012EFCD70D0EAF25016E000E64
:101C7000B021ABC1E9FFACC1EAFFECCF03F0ED52FC
:101C8000EFCFB5F1EA6E01C0E9FF03C0ECFFED5202
:101C9000B5C1EFFF230EAF25E96E000EB021EA6E4D
:101CA000EF960F0EAF25E96E000EB021EA6EEF3C05
:101CB00001D016D00F0EAF25E96E000EB021EA6EEE
:101CC000EFCFB3F1B3C17AF2000102EC00F00F0ED6
:101CD0000101AF25E96E000EB021EA6EFF0EEF6E36
:101CE000230EAF25E96E000EB021EA6EEF82B2C17D
:101CF00001F00001E1EF17F0F29A52C077F251C003
:101D000076F2F28A020176C201F077C202F0000197
:101D1000000C0F0E02017725E96E000E7821EA6EA5
:101D2000EF3C01D01DD00F0E7725E96E000E782113
:101D3000EA6EEFCF79F279C27AF2000102EC00F09C
:101D40000F0E02017725E96E000E7821EA6EFF0E74
:101D5000EF6E230E7725E96E000E7821EA6EEF8292
:101D6000070E7725E96E000E7821EA6EEE52EE52EC
:101D7000EC6AED52EF6AED52EF6AED52EF6A0D0E2A
:101D80007725E96E000E7821EA6EEC6AED52EF6A73
:101D9000230E7725E96E000E7821EA6EEFA604D0B7
:101DA0000001B3EC04F00201230E7725E96E000E6A
:101DB0007821EA6EEF96210E7725E96E000E7821E4
:101DC000EA6EEC6AED52240EEF6E230E7725E96E73
:101DD000000E7821EA6EEF98230E7725E96E000E4B
:101DE0007821EA6EEFA006D077C2E9FF78C2EAFF59
:101DF000EF6A06D077C2E9FF78C2EAFF0A0EEF6EFB
:101E0000100E7725E96E000E7821EA6EEC6AED522D
:101E1000EF6A0001000C1F0E0201EA6F00011EECC8
:101E200001F0000E01A6010E016E00D0000C010EA3
:101E30000201EE6F190EED6F000181EC01F0190E39
:101E40000201EA6F00011EEC01F001C0CBF20201B9
:101E5000EE6B0E0EED6F000181EC01F00E0E020133
:101E6000EA6F00011EEC01F001C0CDF20F0E02017D
:101E7000EA6F00011EEC01F001C0CEF2010E02017A
:101E8000EE6F190EED6F000181EC01F0190E0201E9
:101E9000EA6F00011EEC01F00201CB51015CD8B4E5
:101EA00002D00001CCD7EE6B0C0EED6F000181EC7F
:101EB00001F00C0E0201EA6F00011EEC01F001C0FE
:101EC000CBF20D0E0201EA6F00011EEC01F001C021
:101ED000CCF20201CC51CE5D16E303E1CD51CB5DD6
:101EE00012E2CB51CD5D006ECC51CE59036E005045
:101EF000FF0AF80F006E1B0E035600C001F003C06E
:101F000002F01DD01CD0CB51CD5D09E1CC51CE5D8E
:101F100006E1F70E016E1B0E026E11D010D0CD51EE
:101F2000CB5DCF6FCE51CC59D06F010ECF5D006E1F
:101F3000000ED059036E00C001F0026E00D0000107
:101F4000DCEF10F0060E0201E425EA6F1C0EE5211D
:101F5000EB6F010EEA25E86F000EEB21E96FEE6BE7
:101F6000100EED6F000181EC01F0100E0201F06F18
:101F7000E8C2F1F2000154EC01F0110E0201F06F21
:101F8000E9C2F1F2000154EC01F0010E0201E65D3C
:101F9000006E000EE759036E0050E8270350E92356
:101FA000120EF06FE8C2F1F2000154EC01F0130ED2
:101FB0000201F06FE9C2F1F2000154EC01F01F0ED2
:101FC0000201F26F300EF36F000172EC01F01F0E90
:101FD0000201EA6F00011EEC01F001BAF8D7160EFB
:101FE0000201EA6F00011EEC01F001C0E9F2170ED8
:101FF0000201EA6F00011EEC01F001C0E8F20201EB
:10200000E8C201F0E9C202F00001000C140E5D6E9E
:10201000450E0201D06FD16B140ECE25D26F000E8B
:10202000CF21D36F5B2AD8B45C2A5CC0D5F25BC0E9
:10203000D4F2D76BD66B640ED86FCDC2D9F2DB6BFE
:10204000DA6B1CC0DFF21BC0DEF21AC0DDF219C071
:10205000DCF2060ECB25E96E000ECC21EA6EEFCF46
:1020600000F0ECCF01F0ECCF02F0ECCF03F003C0B6
:10207000E3F202C0E2F201C0E1F200C0E0F2020EBF
:10208000E56FD00EE46F000141EC0AF00201CBC213
:1020900001F0CCC203F0CBC2E4F2CCC2E5F2140EE4
:1020A000CE25E66F000ECF21E76FCCC2E9F2CBC29E
:1020B000E8F2EA6BEC6FE6C2EBF200011BEC07F012
:1020C000020E0201E56FD00EE5C2F0F2EF6FF26B87
:1020D000140EF16F0001F4EC06F00201E56BE46B05
:1020E000E76B140EE66F00012DDF02C0DBF201C0CA
:1020F000DAF250C0E4F20201E66B0A0EE56F00016D
:10210000A0EC06F0020E0201E56FDA0EE5C2F0F275
:10211000EF6FF26B020EF16F0001F4EC06F050C0AD
:10212000E4F20201E66B140EE56F0001A0EC06F08C
:10213000000E016E026E000C010E0201CB6F000159
:102140006ADE0152F9E00201A23D08D0010ECB6F18
:10215000000192EC06F001C0A2F20201A23D01D002
:1021600000D1A2C2E4F2E66B140EE56F0001A0EC10
:1021700006F096C2A8F295C2A7F298C2AAF297C238
:10218000A9F29CC2AEF29BC2ADF29AC2ACF299C265
:10219000ABF2A0C2B2F29FC2B1F29EC2B0F29DC237
:1021A000AFF23F0E0201B415B46FF00EB315B36F6A
:1021B000A1C2B4F200013BD602C0B6F201C0B5F232
:1021C0000201B65303E1B551280805E2280EB55FB8
:1021D000000EB65B02D0B66BB56BB86BB76BBA6B63
:1021E000B96B020ECC6FA70ECB6F000177EC0CF031
:1021F000140E0201A327000EA423A1A30FD0040EE6
:10220000A327000EA423020EBB6F040EBC6FBD6F8C
:10221000BE6B0F0EB3156009B36F04D00F0EB3156C
:102220005009B36F1CC0C2F21BC0C1F21AC0C0F289
:1022300019C0BFF2060E9325E96E000E9421EA6ED6
:10224000EFCF00F0ECCF01F0ECCF02F0ECCF03F0D9
:1022500003C0C6F202C0C5F201C0C4F200C0C3F29E
:10226000C76B060EC86FA4C2CAF2A3C2C9F2CAC223
:10227000EBF2C9C2EAF2000115EC05F002C0CAF2A5
:1022800001C0C9F2020E0201CC6FBF0ECCC2CEF269
:10229000CD6FD06B0C0ECF6F000124EC0BF001C0A2
:1022A000B7F20201B71F02C0B8F2B81FB8C2A6F257
:1022B000B7C2A5F294C2CCF293C2CBF2060ECD6F98
:1022C000A4C2CFF2A3C2CEF20001A0DE020E020130
:1022D000CC6FA70ECCC2F0F2EF6FF26B140EF16F61
:1022E0000001F4EC06F00201A1A30DD0020ECC6FA8
:1022F000BB0ECCC2F0F2EF6FF26B040EF16F000177
:10230000F4EC06F00201A2C2E4F2E66B140EE56FF3
:102310000001A0EC06F0A4C2CCF2A3C2CBF2B5EC53
:102320000BF002C0A6F201C0A5F2A2C2E4F20201C3
:10233000E66B240EE56F0001A0EC06F0A6C2EEF2FB
:10234000E5EC06F0A5C2EEF2E5EC06F0A2C2E4F27E
:102350000201E66BE56B0001A0EC06F07AEC07F0F9
:1023600002010001000C0101AB51240DF350036A7E
:10237000600F016E000E032201C0C2F103C0C3F161
:10238000C46B1E0EC225E96E000EC321EA6EEF6A11
:102390001F0EC225016E000EC321036E01C0C9F1DC
:1023A000CA6F0001A9DCCAC1EAFFC9C1E9FF02C0C6
:1023B000ECFFED5201C0EFFF210E0101C225E96ED5
:1023C000000EC321EA6EEC6AED52240EEF6E0D0E84
:1023D000AE25E96E000EAF21EA6EEFA41ED000011B
:1023E000B3EC04F00101C2C101F0C3C103F0C2C1EA
:1023F000C9F1C3C1CAF1230EC225E96E000EC32183
:10240000EA6EEFA002D0000E01D0010ECAC1EAFFB1
:10241000C9C1E9FFEF6E23EF17F0160EC225E96E72
:10242000000EC321EA6EEFCF00F0ECCF01F0ECCF4D
:1024300002F0ECCF03F003C0B9F102C0B8F101C063
:10244000B7F100C0B6F10E0EAE25E96E000EAF2159
:10245000EA6EECCF03F0ED52EFCFC9F103C0CAF141
:10246000CB6BCC6B080EAE25E96E000EAF21EA6E89
:10247000EFCF00F0ECCF01F0ECCF02F0ECCF03F0A7
:102480000050B65D006E0150B759016E0250B85948
:10249000026E0350B959036E0050C95F0150CA5B08
:1024A0000250CB5B0350CC5B100EC225E96E000ED0
:1024B000C321EA6EECCF03F0ED52EFCF00F003C082
:1024C00001F0026A036A0050C95DC56F0150CA5924
:1024D000C66F0250CB59C76F0350CC59C86FC8BFE5
:1024E00001D00AD0140EC225E96E000EC321EA6E97
:1024F000EC6AED52EF6A0AD0140EC225E96E000EA6
:10250000C321EA6EB2C1EFFFB3C1ECFFC2C1E9FF64
:10251000C3C1EAFFEF2CBED00D0EAE25E96E000E52
:10252000AF21EA6EEFB212D00001B3EC04F00D0E51
:102530000101AE25E96E000EAF21EA6EEFA804D0CE
:10254000040EC46FE6EF16F023EF17F01A0EC22543
:10255000016E000EC32101C0C9F1CA6F040EAE2581
:10256000E96E000EAF21EA6EEFCFCBF1ECCFCCF1EC
:10257000ECCFCDF1ECCFCEF1B051CB27B151CC2384
:10258000000ECD23CE23010ECB25006E000ECC21F4
:10259000016E000ECD21026E000ECE21CAC1EAFFEF
:1025A000C9C1E9FF00C0EFFF01C0ECFF02C0ECFFB2
:1025B000EC6E1A0EC225E96E000EC321EA6EEFCF53
:1025C00000F0ECCF01F0ECCF02F0ECCF03F003C051
:1025D000B5F102C0B4F101C0B3F100C0B2F10D0E0B
:1025E000AE25E96E000EAF21EA6EEFB80ED0C2C183
:1025F000E9FFC3C1EAFF020EEF6E0001B3EC04F085
:10260000120E0101C46FE6EF16F0C2C1E9FFC3C1AB
:10261000EAFF030EEF6E100EC46F140EC225016E9A
:10262000000EC321036ECA6F0E0EAE25E96E000EBA
:10263000AF21EA6EECCF03F0ED52EFCFCBF1CAC180
:10264000EAFF01C0E9FF03C0ECFFED52CBC1EFFF91
:10265000B051B1111AE0230EC225E96E000EC3215C
:10266000EA6EEF86120EC225E96E000EC321EA6EF5
:10267000B1C1ECFFED52B0C1EFFF230EC225E96EF0
:10268000000EC321EA6EEF8404D00001B3EC04F025
:1026900001019CD3C2C1E9FFC3C1EAFFEF52D8A434
:1026A000CAD00001B3EC04F00D0E0101AE25E96EB5
:1026B000000EAF21EA6EEFB203D0040EC46F86D3D2
:1026C0001A0EC225016E000EC32101C0C9F1CA6FE6
:1026D000040EAE25E96E000EAF21EA6EEFCFCBF10E
:1026E000ECCFCCF1ECCFCDF1ECCFCEF1B051CB278C
:1026F000B151CC23000ECD23CE23010ECB25006E8D
:10270000000ECC21016E000ECD21026E000ECE21F6
:10271000CAC1EAFFC9C1E9FF00C0EFFF01C0ECFF79
:1027200002C0ECFFEC6E140EC225016E000EC32138
:10273000036ECA6F0E0EAE25E96E000EAF21EA6E73
:10274000ECCF03F0ED52EFCFCBF1CAC1EAFF01C0ED
:10275000E9FF03C0ECFFED52CBC1EFFF010EC22534
:10276000016E000EC321036E01C0C9F1CA6FEA6E8B
:1027700001C0E9FFADC1E2FFACC1E1FF0A0E016E8D
:10278000E6CFEEFF012EFCD70D0EC225016E000E26
:10279000C321AEC1E9FFAFC1EAFFECCF03F0ED52B8
:1027A000EFCFCBF1EA6E01C0E9FF03C0ECFFED52C1
:1027B000CBC1EFFFC2C1E9FFC3C1EAFF020EEF6E5A
:1027C000160EC225E96E000EC321EA6EEFCF00F0AF
:1027D000ECCF01F0ECCF02F0ECCF03F003C0B9F185
:1027E00002C0B8F101C0B7F100C0B6F1160EC225A3
:1027F000E96E000EC321EA6E010EEE26000EEE22F7
:10280000EE22ED221A0EC225E96E000EC321EA6EF9
:10281000EFCF00F0ECCF01F0ECCF02F0ECCF03F003
:1028200003C0B5F102C0B4F101C0B3F100C0B2F110
:10283000120EC46FCBD21A0EC225E96E000EC32150
:10284000EA6EEFCF00F0ECCF01F0ECCF02F0ECCF6E
:1028500003F003C0BDF102C0BCF101C0BBF100C078
:10286000BAF1160EC225E96E000EC321EA6EEFCF53
:1028700000F0ECCF01F0ECCF02F0ECCF03F003C09E
:10288000C1F102C0C0F101C0BFF100C0BEF1040E31
:10289000AE25E96E000EAF21EA6EEFCF00F0ECCF6F
:1028A00001F0ECCF02F0ECCF03F003C0B5F102C0B1
:1028B000B4F101C0B3F100C0B2F1026A036AB051D1
:1028C000B227B151B3230250B4230350B523160EDF
:1028D000C225E96E000EC321EA6EEFCF00F0ECCF07
:1028E00001F0ECCF02F0ECCF03F003C0B9F102C06D
:1028F000B8F101C0B7F100C0B6F1040EAE25E96E23
:10290000000EAF21EA6EEFCFC9F1ECCFCAF1ECCFE8
:10291000CBF1ECCFCCF1BA51C95DD8A449D2BB51AF
:10292000CA5DD8A445D2BC51CB5DD8A441D2BD511B
:10293000CC5DD8A43DD2C2C1E9FFC3C1EAFFEF50CC
:10294000020843E10D0EAE25E96E000EAF21EA6EDE
:10295000EFA836D01A0EC225E96E000EC321EA6E2A
:10296000B2C1EFFFB3C1ECFFB4C1ECFFB5C1ECFFE6
:10297000C2C1E9FFC3C1EAFF030EEF6EB051B1114E
:102980001AE0230EC225E96E000EC321EA6EEF861F
:10299000120EC225E96E000EC321EA6EB1C1ECFF32
:1029A000ED52B0C1EFFF230EC225E96E000EC32128
:1029B000EA6EEF8404D00001B3EC04F0010104D00E
:1029C0000001B3EC04F00101F2D11A0EC225E96E48
:1029D000000EC321EA6EB2C1EFFFB3C1ECFFB4C178
:1029E000ECFFB5C1ECFFC2C1E9FFC3C1EAFFEF5084
:1029F0000308D8A4E5D00D0EAE25E96E000EAF2178
:102A0000EA6EEFA82ED0230EC225E96E000EC32178
:102A1000EA6EEFB226D00F0EC225E96E000EC3217A
:102A2000EA6EEF3C01D01DD00F0EC225E96E000EFC
:102A3000C321EA6EEFCFC9F1C9C17AF2000102ECFD
:102A400000F00F0E0101C225E96E000EC321EA6EEF
:102A5000FF0EEF6E230EC225E96E000EC321EA6E53
:102A6000EF820D0EAE25E96E000EAF21EA6EEFA0EB
:102A70005BD0110EC46F160EC225E96E000EC32185
:102A8000EA6EEFCF00F0ECCF01F0ECCF02F0ECCF2C
:102A900003F003C0B9F102C0B8F101C0B7F100C042
:102AA000B6F1160EC225E96E000EC321EA6E010EC4
:102AB000EE26000EEE22EE22ED221A0EC225E96E5F
:102AC000000EC321EA6E010EEF24006E000EEC2012
:102AD000016E000EEC20026E000EEC20ED52ED5265
:102AE000ED5200C0EFFF01C0ECFF02C0ECFFEC6E46
:102AF0001A0EC225E96E000EC321EA6EEFCF00F078
:102B0000ECCF01F0ECCF02F0ECCF03F003C0B5F155
:102B100002C0B4F101C0B3F100C0B2F1C2C1E9FF1B
:102B2000C3C1EAFF090EEF6EB051B11144E0230EAC
:102B3000C225E96E000EC321EA6EEFB61BD0230E4C
:102B4000C225E96E000EC321EA6EEF86120EC22581
:102B5000E96E000EC321EA6EB1C1ECFFED52B0C1C7
:102B6000EFFF230EC225E96E000EC321EA6EEF844B
:102B7000C48920D0160EC225E96E000EC321EA6E6C
:102B8000BEC1EFFFBFC1ECFFC0C1ECFFC1C1ECFF94
:102B90001A0EC225E96E000EC321EA6EBAC1EFFF1C
:102BA000BBC1ECFFBCC1ECFFBDC1ECFF0001B3EC4D
:102BB00004F0010104D00001B3EC04F00101F7D0EE
:102BC000C2C1E9FFC3C1EAFFEF50090815E10001E6
:102BD000B3EC04F00D0E0101AE25E96E000EAF213D
:102BE000EA6EEFA808D0C3C178F2C2C177F2000143
:102BF00089EC0EF00101DBD0C2C1E9FFC3C1EAFFDD
:102C0000EF5004086AE10001B3EC04F00D0E01017D
:102C1000AE25E96E000EAF21EA6EEFA04DD0100E8A
:102C2000C46F1A0EC225E96E000EC321EA6E010EB2
:102C3000EF24006E000EEC20016E000EEC20026E00
:102C4000000EEC20ED52ED52ED5200C0EFFF01C03E
:102C5000ECFF02C0ECFFEC6E1A0EC225E96E000E0E
:102C6000C321EA6EEFCF00F0ECCF01F0ECCF02F021
:102C7000ECCF03F003C0B5F102C0B4F101C0B3F171
:102C800000C0B2F10D0EAE25E96E000EAF21EA6E66
:102C9000EFA809D0C3C178F2C2C177F2000189EC74
:102CA0000EF008D00101C2C1E9FFC3C1EAFF060E60
:102CB000EF6E000110D001010D0EAE25E96E000E81
:102CC000AF21EA6EEFA806D0C2C1E9FFC3C1EAFF97
:102CD000050EEF6E00016AD00101C2C1E9FFC3C158
:102CE000EAFFEF50050848E10001B3EC04F00D0ED7
:102CF0000101AE25E96E000EAF21EA6EEFA03BD0D8
:102D0000100EC46F1A0EC225E96E000EC321EA6EC2
:102D1000010EEF24006E000EEC20016E000EEC2080
:102D2000026E000EEC20ED52ED52ED5200C0EFFFAE
:102D300001C0ECFF02C0ECFFEC6E1A0EC225E96E7A
:102D4000000EC321EA6EEFCF00F0ECCF01F0ECCF24
:102D500002F0ECCF03F003C0B5F102C0B4F101C042
:102D6000B3F100C0B2F1C3C178F2C2C177F2000181
:102D700089EC0EF001011BD0C2C1E9FFC3C1EAFF1B
:102D8000EF50060814E10001B3EC04F00D0E010150
:102D9000AE25E96E000EAF21EA6EEFA808D0C3C1E0
:102DA00078F2C2C177F2000189EC0EF001010ED079
:102DB0000001B3EC04F0100E0101C46FBDC1B5F108
:102DC000BCC1B4F1BBC1B3F1BAC1B2F1C4533BE071
:102DD000020EAE25E96E000EAF21EA6EECCFCAF10D
:102DE000ED52EFCFC9F1AEC1E9FFAFC1EAFFECCFC1
:102DF000CCF1ED52EFCFCBF1ADC194F2ACC193F277
:102E0000CAC196F2C9C195F2CCC198F2CBC197F272
:102E1000B9C19CF2B8C19BF2B7C19AF2B6C199F29E
:102E2000B5C1A0F2B4C19FF2B3C19EF2B2C19DF28E
:102E3000C4C1A1F2FF0E0201A26FA46BA36B00013B
:102E40009CEC10F001010001F8EF17F0060E0101F3
:102E50007F25E96E000E8021EA6EEFCF00F0ECCF07
:102E600001F0ECCF02F0ECCF03F003C09CF102C004
:102E70009BF101C09AF100C099F181C1E9FF82C1C3
:102E8000EAFFEFCF00F0ECCF01F0ECCF02F0ECCF97
:102E900003F003C0A0F102C09FF101C09EF100C089
:102EA0009DF1A16B060EA26F84C1A4F183C1A3F1B1
:102EB000A4C1EBF2A3C1EAF2000115EC05F002C0D7
:102EC000A4F101C0A3F1010E0101AC6F990EACC1D8
:102ED000CEF2E8CFCDF20201D06B0C0ECF6F000125
:102EE00024EC0BF001C0A6F10101A61F02C0A7F15E
:102EF000A71F84C1CCF283C1CBF20001B5EC0BF06B
:102F000002C0A9F101C0A8F10101A951A65D03E128
:102F1000A851A75D06E00001B3EC04F0010E016EBC
:102F20006ED002017A6B796B000159EC0CF0010E46
:102F30000101AC6F850EACC1DAF2E8CFD9F2020123
:102F4000DC6B140EDB6F0001E5EC04F0010E0201F6
:102F5000CC6F850ECB6F000177EC0CF0010191393D
:102F60000F0B006E0034AB6FAB37FC0EAB17140EBB
:102F7000AB5DAA6FAA51835DAB6F000E8459AC6F35
:102F8000140EAB5D836F000EAC59846F91390F0B3B
:102F9000006E0034AB6FAB37FC0EAB1702017A6BDF
:102FA000ABC179F2000159EC0CF0010E0101AC6FDC
:102FB000850EAB6F80C1AEF17FC1ADF100018AEF2C
:102FC0000DF001C0A5F10101A551FE0813E0A5C156
:102FD000ABF180C1ADF17FC1ACF1010EAF6F850ED9
:102FE000AE6F84C1B1F183C1B0F10001B3EF11F054
:102FF00004D001010001B3EC04F0010E016E4AEFB0
:103000001CF0040E0101D725016E000ED821036EBD
:1030100001C0D9F1DA6F040ED725E96E000ED82170
:10302000EA6EECCFDCF1ED52EFCFDBF1DCC1EBF27D
:10303000DBC1EAF2000115EC05F0DAC1EAFFD9C103
:10304000E9FF02C0ECFFED5201C0EFFF060E0101E7
:10305000D725016E000ED821036E01C0D9F1DA6FB9
:10306000060ED725E96E000ED821EA6EECCFDCF112
:10307000ED52EFCFDBF1DCC1EBF2DBC1EAF2000194
:1030800015EC05F0DAC1EAFFD9C1E9FF02C0ECFF97
:10309000ED5201C0EFFF020E0101D725016E000EB7
:1030A000D821036E01C0D9F1DA6F020ED725E96E7F
:1030B000000ED821EA6EECCFDCF1ED52EFCFDBF160
:1030C000DCC1EBF2DBC1EAF2000115EC05F0DAC17C
:1030D000EAFFD9C1E9FF02C0ECFFED5201C0EFFFEA
:1030E000000C010E0101D86F8B0ED8C1DAF2E8CFC7
:1030F000D9F20201DC6B080EDB6F0001E5EC04F095
:103100000101D66BD56B86C103F085C1E9FF86C18D
:10311000EAFFEFCFD7F1D96B140ED86FDB6BD7C1B5
:10312000DAF1000185EC09F002C0D4F101C0D3F15D
:10313000010185C1E9FF86C1EAFF080EEF5CEF6E71
:1031400086C103F085C1E9FF86C1EAFFEFCFD7F161
:1031500084C1DAF283C1D9F20201DC6BD7C1DBF2A0
:103160000001E5EC04F0010E0101D86F8B0ED76F62
:10317000000147DF010181C1E9FF82C1EAFF8BC184
:10318000EFFF87C1E9FF88C1EAFF90C1ECFFED5274
:103190008FC1EFFF89C1E9FF8AC1EAFF92C1ECFF4D
:1031A000ED5291C1EFFFD551D35D03E1D651D45D0E
:1031B00002E0000E01D0010E016E000171EF1CF063
:1031C000010E0201CB6F000192EC06F001C0D3F1B9
:1031D0000101D33D01D07FD0D3C1E4F20201E66BFF
:1031E000140EE56F0001A0EC06F0036A01018451A2
:1031F000080FD16F000E0320D26F8A6B81C189F155
:103200008C6B8B6B86C18EF185C18DF188C190F17D
:1032100087C18FF1010EEA6E910EE96E83C1E2FF64
:1032200082C1E1FF8451016E04E0E6CFEEFF012E82
:10323000FCD7010ED86F890ED76F0001E2DE080EB1
:1032400001018425D56BD46F80C1CCF27FC1CBF254
:10325000010E0201CD6FD5C1CFF2D4C1CEF2000173
:1032600006EC10F0010E0101D56F890ED5C1F0F208
:10327000E8CFEFF2D2C1F2F2D1C1F1F20001F4ECE9
:1032800006F00201E56B140EE46FD2C1E7F2D1C182
:10329000E6F20001A2EC0FF002C08CF101C08BF14C
:1032A000D3C1E4F20201E66B160EE56F0001A0EC5B
:1032B00006F0010E0101D56F8B0ED5C1F0F2E8CFFB
:1032C000EFF20201F26B020EF16F0001F4EC06F076
:1032D0007AEC07F0010100019DEF1CF001018A6BFF
:1032E0007F6B7F510408D8A046D27F51240DF35044
:1032F000036A600F016E000E032201C084F103C057
:1033000085F1230E8425E96E000E8521EA6EEFB665
:1033100008D0230E8425E96E000E8521EA6EEFA801
:1033200001D027D284C1E9FF85C1EAFFEF500A0826
:1033300011E084C1E9FF85C1EAFFEF520CE1230EE1
:103340008425E96E000E8521EA6E000EEFB0010EB5
:10335000010801E10ED284C1E9FF85C1EAFFEF5007
:1033600003080CE1230E8425E96E000E8521EA6E28
:10337000000EEFB0010E010801E1FBD100017CEC71
:103380000EF002C083F101C082F11F0E01018425FD
:10339000E96E000E8521EA6EECCF03F0ED52EFCF1F
:1033A00001F08351035C04E305E10150825D02E317
:1033B000000E01D0010E036A03101BE01F0E8425CE
:1033C000E96E000E8521EA6EECCF03F0ED52EF506E
:1033D000FF088B6FFF0E03548C6F82518B27835134
:1033E0008C23010E8B25016E000E8C21036E015083
:1033F00010D01F0E8425E96E000E8521EA6EECCFF9
:1034000003F0ED52EF50825D006E03508359036E5E
:103410000050806F03C081F1210E8425E96E000EFB
:103420008521EA6EECCF03F0ED52EFCF01F0815130
:10343000035C05E303E18051015C01E39AD1010ED5
:103440000201CB6F00010BEC0FF0015201E193D1AF
:103450001F0E01018425016E000E8521036E01C03F
:103460008BF18C6F00017CEC0EF08CC1EAFF8BC1FC
:10347000E9FF02C0ECFFED5201C0EFFF210E010198
:103480008425E96E000E8521EA6ED890EF34026E35
:10349000EC34036E0250ED52EF6E03C0ECFF1E0ED3
:1034A0008425E96E000E8521EA6EEF2A84C1E9FFCA
:1034B00085C1EAFF010EEF5CF70FD8B0C8D0090F45
:1034C0000001BEEF1BF0020E01018A6FC0D01E0E7C
:1034D00001018425E96E000E8521EA6EEF50030894
:1034E00003E3120E8A6F16D0230E8425E96E000EB8
:1034F0008521EA6EEFA006D084C1E9FF85C1EAFF0D
:10350000EF6A08D0020E8A6F84C1E9FF85C1EAFF25
:10351000010EEF6E9CD01E0E01018425E96E000E97
:103520008521EA6EEF50030822E30F0E8425E96E31
:10353000000E8521EA6EEF3C01D014D00F0E8425D9
:10354000E96E000E8521EA6EEFCF8BF18BC1E4F2BC
:103550000201E66BE56B0001A0EC06F07AEC07F0E7
:1035600004D00101100E8A6F000128D001010F0E56
:103570008425E96E000E8521EA6EEF3C01D016D05D
:103580000F0E8425E96E000E8521EA6EEFCF8BF1D8
:103590008BC17AF2000102EC00F00F0E01018425CC
:1035A000E96E000E8521EA6EFF0EEF6E110E8A6F36
:1035B00084C1E9FF85C1EAFF040EEF6E010147D027
:1035C0001E0E01018425E96E000E8521EA6EEF5082
:1035D000030803E3010E8A6F08D085C178F284C125
:1035E00077F2000189EC0EF0010131D085C178F24B
:1035F00084C177F289EC0EF0010129D085C178F2FF
:1036000084C177F289EC0EF0010121D0010E010195
:103610008A6F84C1E9FF85C1EAFF090EEF6E17D0FA
:103620001E0E01018425E96E000E8521EA6EEF5021
:10363000030803E3010E8A6F08D085C178F284C1C4
:1036400077F2000189EC0EF0010101D001018A53EB
:10365000D8B48FD08AA917D0160E8425E96E000E33
:103660008521EA6EEFCF00F0ECCF01F0ECCF02F055
:10367000ECCF03F003C089F102C088F101C087F1EB
:1036800000C086F122D0160E8425E96E000E852139
:10369000EA6EEFCF00F0ECCF01F0ECCF02F0ECCF10
:1036A00003F003C089F102C088F101C087F100C0B6
:1036B00086F1160E8425E96E000E8521EA6E010E54
:1036C000EE26000EEE22EE22ED22010E8425016E82
:1036D000000E8521036E01C08BF18C6F0B0E8425CB
:1036E000E96E000E8521EA6EECCF8EF1ED52EFCF40
:1036F0008DF10D0E8425E96E000E8521EA6EECCF6A
:1037000090F1ED52EFCF8FF11A0E8425E96E000E85
:103710008521EA6EEFCF91F1ECCF92F1ECCF93F1EE
:10372000ECCF94F103C094F201C093F28EC196F2F3
:103730008DC195F290C198F28FC197F289C19CF228
:1037400088C19BF287C19AF286C199F294C1A0F216
:1037500093C19FF292C19EF291C19DF28AC1A1F2E2
:10376000FF0E0201A26FA46BA36B00019CEC10F092
:1037700001017F2BB6D50001A6EF1CF0E824F76A03
:10378000F736970FF66E370EF7220A00F550FA6EED
:103790000800F550F96EC634CE341635C035EC3518
:1037A000EC35FC350C36203601017E917E9120519E
:1037B000F90FD8B0C7D0070F0001A8EF1CF0010E19
:1037C0000101806F210E7F6F010E826F7D0E816F70
:1037D000000120EF05F0015203E10101B3D0000127
:1037E00001017E817D5303E1020E206F0AD07D51DD
:1037F000060803E1050E206F04D00001B3EC04F0CD
:103800000101A0D03CEF09F0015202E00101206B60
:10381000010198D0010E0101806F790E7F6F010EBA
:10382000826F210E816F010E846F7D0E836F010EFA
:10383000866F2B0E856F0001B1EF0AF0015215E083
:1038400001017E817D2D03D0030E206F0CD07D51B0
:10385000060803E1060E206F06D07E910001B3EC4E
:1038600004F00101206B05D00001B3EC04F001016C
:10387000206B68D0010E0101806F210E7F6F010E59
:10388000826F790E816F2CC184F12BC183F100010D
:1038900026EF17F0015202E00101206B010152D026
:1038A0000101206B2C5326E12B51480823E3010E24
:1038B000806F2B0E7F6F010E826F7D0E816F010E68
:1038C000846F2D0E836F80C186F17FC185F1010E5B
:1038D000886F6D0E876F010E8A6F6F0E896F000102
:1038E00000D4015208E001017D51080803E17E8106
:1038F000040E206F0001B3EC04F0010123D0010E8F
:103900000201CB6F00010BEC0FF0015218E0010E29
:103910000101806F210E7F6F816B010E836F2D0E71
:10392000826F2BC184F16EC186F16DC185F170C1CA
:1039300088F16FC187F1000143D40101206B0101BF
:1039400001D001017EB132D70001C8D4F6EF22F0D8
:10395000E824F76AF7366B0FF66E390EF7220A0085
:10396000F550FA6E0800F550F96EBE37BE371438C0
:10397000A038FE380438743802017451240DF35015
:10398000766B756F600E7525E96E000E7621EA6E16
:10399000EF50030802E0000E01D0010E016E00019D
:1039A000000C0201766B7651040874E37651240D05
:1039B000F350036A600F016E000E032201C077F21C
:1039C00003C078F277C2E9FF78C2EAFFEF500A0835
:1039D0005FE177C2E9FF78C2EAFFEF6A0B0E772555
:1039E000E96E000E7821EA6E75C2ECFFED5274C2EA
:1039F000EFFF0D0E7725E96E000E7821EA6EEC6A76
:103A0000ED52EF6A070E7725E96E000E7821EA6E17
:103A1000EE52EE52EC6AED52EF6AED52EF6AED5261
:103A2000EF6A230E7725E96E000E7821EA6EEF80AB
:103A3000230E7725E96E000E7821EA6EEF960F0EC1
:103A40007725E96E000E7821EA6EEF3C01D016D0A2
:103A50000F0E7725E96E000E7821EA6EEFCF79F22E
:103A600079C27AF2000102EC00F00F0E0201772514
:103A7000E96E000E7821EA6EFF0EEF6E230E7725B9
:103A8000E96E000E7821EA6EEF8276C201F004D072
:103A9000762B89D7FE0E016E0001A0EF21F0020106
:103AA0007451240DF350766B756F230E7527000E3D
:103AB0007623600E7525E96E000E7621EA6E000E03
:103AC000EFB6010E016E0001C6EF21F00201745144
:103AD000240DF350036A600F016E000E032201C033
:103AE00077F203C078F2230E7725E96E000E782175
:103AF000EA6EEFA651D0230E7725E96E000E7821ED
:103B0000EA6EEFA40ED07A6B140E796F000159ECB7
:103B10000CF0230E02017725E96E000E7821EA6E83
:103B2000EF94120E7725E96E000E7821EA6EECCF45
:103B30007AF2ED52EFCF79F2795310E17A530EE138
:103B40000001B3EC04F0230E02017725E96E000EAC
:103B50007821EA6EEF96000E016E20D0120E7725C6
:103B6000E96E000E7821EA6EFF0EEF2602E2EE52B9
:103B7000ED0676C203F075C279F276C27AF20001E0
:103B80009FEC0BF07AC2EAFF79C2E9FF01C0EFFFB8
:103B9000010E016E020102D0000E016E0001D2EF93
:103BA00021F002017451240DF350766B756F140EE1
:103BB0007525016E000E7621036E0150600FE96ECF
:103BC000000E0320EA6EECCF76F2ED52EFCF75F2E5
:103BD000755305E1765303E1000E016E2FD0745149
:103BE000240DF350766B756F0F0E7525016E000E68
:103BF0007621036E0150600FE96E000E0320EA6E1D
:103C0000EF3C08D0CB6B00010BEC0FF00150020130
:103C100015D014D07451240DF350766B756F230EAC
:103C20007527000E7623600E7525E96E000E76214D
:103C3000EA6E000EEFB2010E016E00D00001000C22
:103C400078C1EAFF77C1E9FF020178C2EFFFE92AF4
:103C5000D8B4EA2AEF6A0101772BD8B4782B000197
:103C60003CEF1EF00900F5520CE0F6CF76F2F7CFEC
:103C700077F2F5CF78F2E4D776C2F6FF77C2F7FF96
:103C8000F1D7000C75C277F274C276F277C203F0F6
:103C9000020176C2E9FF77C2EAFFEF5206E0762B17
:103CA000D8B4772B0001F2D702017451765D006E13
:103CB00075517759036E00C001F00001000C02013C
:103CC0007F51240DF350036A600F016E000E032232
:103CD00001C080F203C081F20F0E8025E96E000E54
:103CE0008121EA6EEF3C03D0000E016ECBD0230E93
:103CF0008025E96E000E8121EA6E000EEFB2010E02
:103D0000000A03E1000E016EBDD0010E8025016E98
:103D1000000E8121036E01C082F2836F0B0E80259D
:103D2000E96E000E8121EA6EECCF85F2ED52EFCF05
:103D300084F20D0E8025E96E000E8121EA6EECCF33
:103D400087F2ED52EFCF86F2160E8025E96E000E57
:103D50008121EA6EEFCF88F2ECCF89F2ECCF8AF2C4
:103D6000ECCF8BF21A0E8025E96E000E8121EA6EEF
:103D7000EFCF8CF2ECCF8DF2ECCF8EF2ECCF8FF256
:103D80000F0E8025E96E000E8121EA6EEFCF90F2D2
:103D9000100E8025E96E000E8121EA6EECCF92F2C2
:103DA000ED52EFCF91F203C094F201C093F285C2BD
:103DB00096F284C295F287C298F286C297F28BC2BD
:103DC0009CF28AC29BF289C29AF288C299F28FC28F
:103DD000A0F28EC29FF28DC29EF28CC29DF2180E8E
:103DE000A16F90C2A2F292C2A4F291C2A3F200010A
:103DF0009CEC10F0160E02018025016E000E812150
:103E0000036E01C082F2836FEA6E01C0E9FFEFCF5B
:103E100084F2ECCF85F2ECCF86F2ECCF87F2100E75
:103E20008025E96E000E8121EA6EECCF03F0ED52A1
:103E3000EFCF00F003C001F0026A036A845100264C
:103E400085510122865102228751032283C2EAFF53
:103E500082C2E9FF00C0EFFF01C0ECFF02C0ECFF2F
:103E600003C0ECFF230E8025E96E000E8121EA6E6F
:103E7000EF92230E8025E96E000E8121EA6EEF9805
:103E8000010E016E0001000C02017951240DF35066
:103E9000036A600F016E000E032201C07BF203C0B3
:103EA0007CF2140E7B25E96E000E7C21EA6EECCFCD
:103EB00080F2ED52EFCF7FF27F5305E1805303E1B3
:103EC000000E016E83D00F0E7B25E96E000E7C2163
:103ED000EA6EEF3C39D00F0E7B25016E000E7C217F
:103EE000036E01C07FF2806FCB6B000192EC06F095
:103EF00080C2EAFF7FC2E9FF01C0EFFF0F0E02019F
:103F00007B25E96E000E7C21EA6EEF3C03D0000EAB
:103F1000016E5CD0100E7B25E96E000E7C21EA6EEE
:103F2000EC6AED52EF6A0F0E7B25E96E000E7C21E4
:103F3000EA6EEFCF7FF27FC2E4F2E66B280EE56F08
:103F40000001A0EC06F00201230E7B25E96E000EB5
:103F50007C21EA6EEF887AC2EEF20001E5EC06F011
:103F6000140E02017B25E96E000E7C21EA6EFF0E25
:103F7000EF2602E2EE52ED06100E7B25E96E000EF2
:103F80007C21EA6EECCF03F0ED52EFCF7DF203C05F
:103F90007EF27D2BD8B47E2B100E7B25E96E000EB1
:103FA0007C21EA6E7EC2ECFFED527DC2EFFF7E51B6
:103FB00002080AE2FF0A03E17D51C90805E279C25D
:103FC0007FF200017CDE0201010E016E0001EEEFC6
:103FD0001FF071C179F278C27AF256D7000C09004D
:103FE000F5520CE0F6CF74F2F7CF75F2F5CF78F218
:103FF000F0DF74C2F6FF75C2F7FFF1D7000C0900BD
:10400000F6CF76F2F7CF77F2F5CF78F2E2DF76C22D
:10401000F6FF77C2F7FF0201752F01D002D0000131
:10402000EED700012BEF22F002017851016A775D93
:1040300003E277C200F00CD0006A080E796F773780
:1040400000367851005CD8B0006E0136792FF7D772
:104050000001000C015075C277F2640E0201786F06
:104060000001E2DF00C075F20150300E08E10201EC
:1040700076A30FD076B70DD076B9200E04D002010A
:10408000769776997681012601C078F20001A1DF4A
:10409000020175C277F20A0E786F0001C5DF00C019
:1040A00075F20150300E08E1020176B70AD076A110
:1040B00008D076B9200E0001012601C078F289DF10
:1040C0000201300E752775C278F2000182DF32EFEF
:1040D00022F0EF520FE0EACF75F2E9CF74F2EFCFA2
:1040E00078F277DF75C2EAFF74C2E9FFE92AD8B433
:1040F000EA2AEFD74BEF22F002017751240DF3505B
:10410000036A600F016E000E032201C078F203C043
:1041100079F2230E7825E96E000E7921EA6EEFB66A
:1041200003D0000E016E0DD00001B3EC04F0230E9D
:1041300002017825E96E000E7921EA6EEF96010EF4
:10414000016E0001CBEF20F002017451240DF350F9
:10415000036A600F016E000E032201C075F203C0F6
:1041600076F275C2E9FF76C2EAFFEF5003080FE06E
:1041700075C2E9FF76C2EAFFEF50020808E076C296
:1041800078F275C277F2000189EC0EF078D074C233
:1041900077F20001B1D7010E02017525016E000E04
:1041A0007621036E01C077F2786F0B0E7525E96EEC
:1041B000000E7621EA6EECCF7AF2ED52EFCF79F273
:1041C0000D0E7525E96E000E7621EA6EECCF7CF2BD
:1041D000ED52EFCF7BF2160E7525E96E000E7621BB
:1041E000EA6EEFCF7DF2ECCF7EF2ECCF7FF2ECCF38
:1041F00080F21A0E7525E96E000E7621EA6EEFCF79
:1042000081F2ECCF82F2ECCF83F2ECCF84F203C0E8
:1042100094F201C093F27AC296F279C295F27CC20E
:1042200098F27BC297F280C29CF27FC29BF27EC260
:104230009AF27DC299F284C2A0F283C29FF282C236
:104240009EF281C29DF2110EA16FFF0EA26FA46BB0
:10425000A36B00019CEC10F0160E02017525E96EAF
:10426000000E7621EA6E010EEE26000EEE22EE2200
:10427000ED2275C2E9FF76C2EAFF040EEF6E00017F
:104280005CEF22F001017151FE0802E1726B49D02E
:1042900071C174F20001BCEC1CF0015205E1010E89
:1042A0000101726F3ED000017CEC0EF002C075F28D
:1042B00001C074F2020102500101745D09E30AE1D8
:1042C00073510201745DD8B002D0010103D0010125
:1042D000000E01D0010E036A03101AE0FF0ED88011
:1042E00073550201746FFF0E010174550201756F61
:1042F00000017CEC0EF0015002017427025075237E
:10430000010E7425016E000E7521036E015008D058
:1043100000017CEC0EF002C075F201C074F20201E3
:1043200001017251FB0FD8B0CDD0050F000165EF30
:1043300022F00201756B500E746F0001D1EF1CF07A
:1043400001C071F101017151FE080AE0010E726FA6
:1043500000017CEC0EF002C074F101C073F10101A8
:10436000B1D07CEC0EF002C074F101C073F171C1E8
:1043700074F2BCEC1CF0015203E0020E0101726FFA
:104380000101A0D071C174F24FEF1DF001521BE08A
:1043900071C174F2010E0201766F790E756F000122
:1043A00066EF1DF001520FE0010179510A0805E1A5
:1043B00076510A0802E1030E726F75C176F179C178
:1043C00075F10001E5D701017DD071C174F2D1EC26
:1043D0001DF0015266E0010E0101786F7A0E776FD1
:1043E000CE0EF66E000EF76E00013CDC010E0201EF
:1043F000756F7A0E746F000145DC7A0E012402019C
:10440000746F010E756FD8B0752B75C278F174C2D8
:1044100077F1460EF66E010EF76E000123DC560EA4
:10442000F66E010EF76EDBDD680EF66E010EF76EAE
:10443000D6DD010E0201756F7A0E746F000122DC69
:1044400001C074F2820EF66E010EF76E100E0201BC
:10445000756F0001D4D574C275F21B0E0201766F20
:104460000001F8D50D0E0201786F0001B2DD0A0ED1
:104470000201786F0001ADDD0D0E0201786F0001C1
:10448000A8DD0A0E0201786F0001A3DD010EEA6EBD
:104490007A0EE96E1ED671C17FF211DC020E0101A7
:1044A000726F01010FD071C174F2D1EC1DF0015295
:1044B00006E071C174F248D6010E0101726F01016C
:1044C00001D001010001F7EF22F0E824F76AF73686
:1044D000E50FF66E440EF7220A00F550FA6E08005A
:1044E000F550F96E324362438443CA43A644F86AE6
:1044F000D09E078EEA6AE96A526A516A536A546A20
:104500005C6A5B6A040E5F6E5E6AFE0E0101716F8B
:10451000726B786B776BC150C00B0F09C16E070EC1
:10452000B46E4A6A4B6A5D6A5992166B176B186BC8
:10453000196B1A6B1B6B1C6B1D6B1E6B1F6B2B6B34
:104540002C6B2D6B2E6B2F6B306B316B326B336B97
:10455000346B356B366B376B386B396B3A6B3B6B47
:104560003C6B3D6B3E6B3F6B406B416B426B436BF7
:10457000446B456B466B476B486B496B4A6B4B6BA7
:104580004C6B4D6B4E6B4F6B506B516B526B536B57
:10459000546B556B566B576B586B596B5A6B5B6B07
:1045A0005C6B5D6B5E6B5F6B606B616B626B636BB7
:1045B000646B656B666B676B686B696B6A6B6B6B67
:1045C0006C6B6D6B6E6B6F6B706B736B746B756B11
:1045D000766B93948A8493988A980001CCEF00F0CC
:1045E000D7EF00F0AAEF04F0D4EF1BF04BD693986E
:0A45F0008A8893948A94F8D7030098
:020000040030CA
:0E00000024CE3E1E0087A1000FC00FE00F406F
:00000001FF
;PIC18F4550
;CRC=6E65  CREATED="12-feb-15 21:43"
